:020000022000DC
:1060000000000420756302005D6302005F6302000C
:106010006163020063630200656302000000000028
:1060200000000000000000000000000067630200A4
:1060300069630200000000006B6302006D630200F0
:106040006F6302006F630200A57502006F630200B8
:106050006F6302006F6302006F6302006F630200F0
:106060006F6302006F6302006F6302006F630200E0
:106070006F6302006F6302006F6302006F630200D0
:106080006F6302006F6302006F6302006F630200C0
:106090006F6302006F630200457B02006F630200C2
:1060A0006F6302006F6302006F6302006F630200A0
:1060B0006F6302006F630200000000000000000038
:1060C0006F6302006F6302006F6302006F63020080
:1060D0006F6302006F630200B17502006F6302001C
:1060E0006F6302006F6302006F6302000000000034
:1060F000000000006F630200000000006F630200F8
:10610000000000000000000000000000000000008F
:10611000000000000000000000000000000000007F
:10612000000000000000000000000000000000006F
:10613000000000000000000000000000000000005F
:10614000000000000000000000000000000000004F
:10615000000000000000000000000000000000003F
:10616000000000000000000000000000000000002F
:10617000000000000000000000000000000000001F
:10618000000000000000000000000000000000000F
:1061900000000000000000000000000000000000FF
:1061A00000000000000000000000000000000000EF
:1061B00000000000000000000000000000000000DF
:1061C00000000000000000000000000000000000CF
:1061D00000000000000000000000000000000000BF
:1061E00000000000000000000000000000000000AF
:1061F000000000000000000000000000000000009F
:10620000354936480A1A02D0072291438D4634494F
:1062100034480A1A06D00722914381F309880222E2
:1062200082F3148830483149314A00F044F831484B
:106230003149324A00F03FF831483249324A00F0E1
:106240003AF832483249334A00F035F83248334997
:10625000334A00F030F833483349344A00F02BF821
:1062600033483449344A00F026F83448344900228F
:1062700000F02CF833483449002200F027F8334866
:106280003349091A082902DB002202604160314AC1
:1062900090471F481F49884205D00268043003B464
:1062A000904703BCF7E700208646EC46002000211B
:1062B000294A9047FEE7884207D0521A05D0037852
:1062C00001300B700131013AF9D17047884202D098
:1062D00002700130FAE770470000042000E003205C
:1062E00000000420000004208CA70200B857002002
:1062F000D85B0020D4630200D46302002E8F02001A
:106300008CA70200B8570020B85700208C8F0200DD
:106310008C8F02008C8F02008C8F02008C8F020009
:106320008C8F02008C8F02008C8F02008CA70200E1
:10633000ACAB0200D85B0020D85B0020D85B00200B
:10634000447C0020447C0020447C0020447C0020CD
:10635000449C00209D630200C9750200FEE7FEE731
:10636000FEE7FEE7FEE7FEE7FEE7FEE7FEE7FEE705
:10637000704700BF1048804710484FF0070188431E
:1063800085460F4880470F48016841F4700101605D
:10639000BFF34F8FBFF36F8FFFF732BF0A480B4930
:1063A0000B4A884207D0521A05D0037801300B708F
:1063B0000131013AF9D170477163020000000420F5
:1063C0006579020088ED00E08C8F0200B85700204C
:0463D000B85700209A
:1063D4007047000007B5044B0093044A402300F0C3
:1063E40032F803B05DF804FBF5630200D95B0020CA
:1063F4002DE9F84389461446B2B10F4B0F4E0325DD
:10640400002743F00108224609EB0701002001F0B0
:1064140061FA0744241A48B933782BB14FF47A400F
:10642400C047013D02D13570BDE8F88301233370C4
:10643400002CE8D1F8E700BF908F0200D85B002061
:10644400704701F07BBAF0B595B01C461646084675
:106454000D4600F0FCFF1A9B0D93CDE9086400245F
:106464002346082205A928460A948DF82C400C944A
:1064740001F00AF8079B0293069B03939DF81430DE
:106484008DF8114003F00302012A1DD1BDF8144018
:10649400059EC3F3C203C4F383148DF81030A20025
:1064A40008230EA9284600F0EFFFC6F3952608AB93
:1064B4000093224602AB0EA9304600F099FB284611
:1064C40000F0C9FF15B0F0BD022AF8D1BDF816409E
:1064D400C3F3C203A4098DF810300827082C2646FC
:1064E40028BF08263B4632460EA9284600F0CCFFBA
:1064F400A41B08AB02AA31460EA8374400F0DCFB0B
:10650400002CEBD1DBE7000008B5FFF79AFF04216C
:10651400034800F0DBFA034B01225A7108BD00BFA7
:10652400688F0200B8570020037813F0040216D0D5
:1065340003F00303012B03D0022B09D00120704781
:106544000A6800880232C0F3831002440A60F5E747
:106554000B684288023303EB92130B60EEE710469C
:10656400704700002DE9F04F87B000230446851CD6
:106574000DF107000F4690468DF8073000F03CFC03
:10658400454806683E60D0E90132134401339B1B41
:10659400824600F21C4600F5836900F21447AB42C0
:1065A4001BD30022B8F1000F70D0052363F3070258
:1065B40064F38912DAF80010DAF808309DF807005D
:1065C4000B4003330D444AF82320CAF8005000F06E
:1065D40037FC012007B0BDE8F08F0121304600F000
:1065E4007BFC484600F091FC384600F08EFCDAF85B
:1065F4000400DAF808B0029000EA0B0003300AEB5A
:10660400800002A9FFF790FF029B50BB0BEA030234
:106614000AEB820203F1020CD2680392013303EA0B
:106624000B0B0AEB8B0B02F00302012ACDF808C016
:10663400DBF80C1022D0022A16D08346384600F02C
:1066440067FC10B1029BCAF804305946304600F08A
:1066540043FCDAE901231344DAF8002001339B1ADE
:106664009DE70BEA0300C9E7BDF80E309B0903332D
:106674004FEA114B0CEB93030293DFE7BDF80C30A8
:10668400C3F383134FEA114B6344F5E7062363F323
:10669400070264F39F528DE7EC5C00200B4B0C481F
:1066A400FF2210B59A600022C3F81824C3E900221F
:1066B400C3F81424012283F8202400F081FE044648
:1066C40010B9044800F0EAFE204610BDEC5C00203E
:1066D400788F0200B48F020030B50A4C71B10A4AB7
:1066E4000A49121BD20800239A4201D1002030BD6E
:1066F40031F82350854202D00133F5E7034654F8BC
:106704003300F4E7388F0200688F0200B857002086
:10671400094B013903EBC000032909D8DFE801F074
:106724000A020406042070470079704740797047D4
:106734000020704702207047388F0200154B93F8F1
:10674400203437B504460BB918B90024204603B0E9
:1067540030BD01F07BFB0130009001236A4601A9A2
:106764000D4800F0A4FE05460028EED12146009A0B
:10677400019801F020FBDDE900231344064803F8E7
:10678400015C009900F0CDFE0099034800F0E0FEA2
:10679400019CDBE7EC5C0020B48F0200034BD3E9DF
:1067A4000030C31A58425841704700BFEC5C0020C7
:1067B4002DE9F04387B0FFF7F1FF0646002840F0CB
:1067C400FB807E4DC5F81804BFF34F8F6868AC6832
:1067D40002902040033005EB800002A9FFF7A4FEDD
:1067E400029B18B1D5F81824002A5FD004EA0302EA
:1067F400991C013305EB8202234005EB8303D26825
:10680400DB68049302F00303022B0392029162D12A
:10681400BDF80E306A484FEA9318B8F1500FC146DC
:1068240028BF4FF0500969F38F1309F10801ADF83F
:106834000E3000F0DDFD0746002800F0A88000F0CF
:1068440006FE03A900230822384600F013FE02992D
:1068540024EA01060136B600B14535D95FFA89F953
:106864007EB3F6B2A9EB0609214003315FFA89F43D
:10687400B146544E05EB810108234A46384600F0E0
:10688400F9FD36B109F1080322463146384600F0D5
:10689400F1FD029B08F1030803EB98030293D5F87A
:1068A4001834002B4BD1D5F810445BE02A689A4287
:1068B40004D86A60304607B0BDE8F08304EA0300F8
:1068C40088E740493446D7E72140033108234A4644
:1068D40005EB8101DAE7012B59D1BDF80C303848BA
:1068E400C3F38311062928BF062161F389130231FA
:1068F4008900ADF80C3000F07BFD0746002846D037
:1069040000F0A5FD0023082203A9384600F0B2FDDB
:106914000026BDF80C20C2F38312B300964203F1A3
:106924000803BCD202994A1C21400331029205EBB0
:1069340081010422384600F09DFD0136E9E738461E
:1069440000F089FDFFF72AFF80F00100C6B2B1E72D
:10695400E3685B7923B1236839461B68204698476E
:10696400E3681C68002CF3D1384600F074FD0DF187
:1069740007008DF8074000F03FFAD5F818340BB93A
:10698400029B6B609DF8070000F05AFADAE7D5F82D
:10699400104454B90C4B0D480D49C01AC0080004EA
:1069A40040F0020000F06EF8CCE7236820469B68B4
:1069B4009847E3681C68ECE700267BE7EC5C002062
:1069C400788F0200F85C0020388F0200508F02009C
:1069D400C08F02002DE9F74F284C80460F4692469F
:1069E40001A9012218469B46D4F80890FFF7BAFD86
:1069F40080B3019D0026A91C5E4506EB010233D13C
:106A040000211F4800F032FA80F310006A1C02EAE9
:106A1400090204EB8202000405EA0903033340EA95
:106A24001840D06014F8232068F3C50204F823202A
:106A340034F8232066F3891224F8232054F8232001
:106A440067F39F2244F8232002F0F80242F0010287
:106A540004F8232094F820341BB1FFF7A9FE002882
:106A6400FBD103B0BDE8F08F09EA020204EB820215
:106A74005AF82630D3600136BEE700BFEC5C002034
:106A84000861002000231A46FFF7A4BF07B50123BD
:106A9400019201AAFFF79EFF03B05DF804FB07B55E
:106AA400CDE9002302236A46FFF794FF03B05DF8A3
:106AB40004FB1FB5CDE90123069B039301AA03231D
:106AC400FFF788FF05B05DF804FB000030B50F49FF
:106AD400D1F81024002314463CB9C468237152B978
:106AE400C1F810042260184630BDE46825799D423F
:106AF40006D02468F0E7D268116821601060F2E7DC
:106B040001330A2BE7D14FF0FF33ECE7EC5C0020B4
:106B1400094A38B50123D2F8104482F820341D46BE
:106B240004B938BDE3685D71236820465B68984703
:106B3400E3681C68F4E700BFEC5C0020037A052BD3
:106B440010B50C460FD0437A23B1084A08492046B1
:106B540000F044FA0749204600F040FA2046BDE818
:106B6400104000F030BA002AF8D0F3E70B9002008E
:106B7400109002003A910200C38873B504460D4692
:106B840033B1144A00921449144A284600F026FAF4
:106B9400217A05291CD0637A4BB1A088FFF7B8FD90
:106BA4000F4B104953F82020284600F017FA227A98
:106BB4000D4BA08853F822600021FFF78DFD0B498F
:106BC40003463246284602B0BDE8704000F006BADB
:106BD40002B070BD0B9002001B90020013900200E3
:106BE400D88F0200109002004090020033900200FF
:106BF4002DE9F04385B01F460C9D002306460C4644
:106C0400904695F80C902B7329463846FFF7B4FF4D
:106C1400B8F1060F09D8DFE808F00412181F28336A
:106C240040003146284600F0D9F90022294638466A
:106C3400FFF784FF85F80C9005B0BDE8F083226867
:106C44003146284600F0CAF9EFE7D4E9002331467B
:106C5400284600F0C3F9E8E7A36800933146D4E975
:106C64000023284600F0BAF9DFE7E3680193A3683C
:106C740000933146D4E90023284600F0AFF9D4E765
:106C840023690293E3680193A36800933146D4E92E
:106C94000023284600F0A2F9C7E763690393236938
:106CA4000293E3680193A36800933146D4E9002377
:106CB400284600F093F9B8E708292DE9F84F8046F3
:106CC4000E4617461C463AD8002593F80C901D73BF
:106CD40019461046FFF750FFDFF884A0DFF884B0B0
:106CE400AE422ED918F805205946204600F076F910
:106CF4000135082DF4D11849DFF86CB0204600F0B6
:106D04006DF94FF0000A564520D918F80A507E2D27
:106D140003D8284601F04AF800B92E252A465946D8
:106D2400204600F05BF90AF1010ABAF1080FEAD132
:106D3400012221463846FFF701FF84F80C90BDE894
:106D4400F88F5146204600F049F9D1E7034920461F
:106D540000F044F9E7E700BF069002000490020047
:106D640002900200FC8F0200089002001FB500216F
:106D7400039001AA44F20100CDE9011100F004F8E6
:106D840005B05DF804FB000010B572B6FFF7C0FE55
:106D9400FFF70EFD0028FBD1104B114C1149E41AEA
:106DA400E408240444F00100FFF76CFE0E4B1B685A
:106DB400DB0700D500BE0D4944F00200FFF762FE78
:106DC400BFF34F8F0A490B4BCA6802F4E0621343C6
:106DD400CB60BFF34F8F00BFFDE700BF388F0200C9
:106DE400508F02009F900200F0ED00E0AB90020093
:106DF40000ED00E00400FA0570B5EFF3108672B6FA
:106E04000C4A946801239CB993600B4B0B4DD3F847
:106E1400801029401160C3F88050D3F88410516069
:106E24004FF0FF32C3F88420047006B962B670BD17
:106E34000370FAE7A861002000E100E0FC06FFBD52
:106E4400084B9A6810B55AB150B9EFF3108172B675
:106E5400054A1C6814605C685460986001B962B6A5
:106E640010BD00BFA861002000E100E050E8002F41
:106E74000B4640E8003C9CF0000FF7D110467047E9
:106E840050E8002F42EA010340E8003C9CF0000F68
:106E9400F6D11046704750E8003F43EA010240E84B
:106EA400002C9CF0000FF6D11046704750E8002FDC
:106EB40002EA010340E8003C9CF0000FF6D11046C2
:106EC400704750E8003F03EA010240E8002C9CF0C0
:106ED400000FF6D11046704750E8003F03EB010263
:106EE40040E8002C9CF0000FF6D11046704750E8A3
:106EF400003FA3EB010240E8002C9CF0000FF6D108
:106F0400104670470121FFF7BBBF0121FFF7C3BF44
:106F14000021FFF7CBBF0021FFF7D3BF10B590B11D
:106F2400D0E9012301689B1ADBB20A60013BDBB2A2
:106F3400FF2B026802D10020107110BD11684C1C97
:106F440014600B70F2E70E20F7E737B5054600240E
:106F54000DF107008DF80740FFF74EFF2A686B68B4
:106F6400116899420ED9481E106011F8014CEB6863
:106F7400298A01FB0434AB6811791B1ADBB29942EC
:106F840038BF13719DF80700FFF75AFF204603B07E
:106F940030BD37B5054600230DF107000C468DF8CA
:106FA4000730FFF729FF2A681368591C1160E96844
:106FB400641A298AB4FBF1F41C709DF80700FFF7EA
:106FC4003FFF03B030BD826810B504462AB143695F
:106FD4000168006998470023A36010BD0EB403B58F
:106FE400039921B104AB01AA019300F06DF802B03A
:106FF4005DF804EB03B07047826830B40468551C34
:107004008560A154D0E901329A4202D330BCFFF723
:10701400DABF30BC704700002DE9F84F9946DDE92E
:107024000A431746824688460A460126BA420FD2C8
:107034004E4538BF4E4613F0010B01D164B900240C
:107044000125B9F1010F1AD909F1FF397D43F8E798
:10705400B2FBF7F20136E9E79B070ED5B9F1000F51
:107064000CBF30252025A642EAD2013C29465046D1
:10707400FFF7C2FF002CF6D1E1E72025F3E7B8FBC8
:10708400F5F39F42E2D9DFF83C90B8FBF5F35046A4
:1070940019F8031005FB1388FFF7AEFFB5FBF7F3F0
:1070A400BD4207D2BBF1000F02D00CB1A64203D3FC
:1070B400BDE8F88F1D46E8E720215046013CFFF764
:1070C4009BFFF2E7B89002002DE9F74F05461746FB
:1070D4008846002900F0308118F8011B49B92B7B40
:1070E400002B00F02981284603B0BDE8F04FFFF7DC
:1070F4006ABF252940F0C080002698F800302D2B67
:10710400424608F1010823D0302B24D02B2B25D064
:1071140000242A2B02F1010123D13B681A1D1B68AC
:107124003A601C440A4613782E2B26D101324FF0C4
:107134000009104610F8011BA1F1300CBCF1090F35
:107144001DD80A2303FB0913A3F130090246F0E713
:1071540046F00106D1E746F00206CEE746F0040603
:10716400CBE711F8013CA3F130000928DBD80A224F
:1071740002FB0434303C0A46CBE74FF0000912F816
:10718400011B01F0FB0068289046F8D069290ED055
:107194004AD8582964D006D825296DD098F80030EB
:1071A400002B99D19BE7632962D06429F6D13A6810
:1071B400D2F800A0111D8AEAEA723960A2EBEA72E1
:1071C4004FF0010B092A5BDCCB4538BFCB462CB111
:1071D400BAF1000F01DB720700D5013CB30702D5F9
:1071E400B9F1000F04D0F00702D4002C4ED10024D2
:1071F400BAF1000F52DACAF1000A2D212846FFF72E
:10720400FBFE06F00302022A05D1B9F1000F02D1F8
:10721400002C47D10024CDE900464B460A225146B2
:107224002846FFF7F9FEB9E773294CD014D8702922
:10723400B4D13B681A1D3A60302128461C68FFF718
:10724400DBFE78212846FFF7D7FE00220823CDE98C
:10725400003221461022E3E775292BD078299DD1ED
:1072640039680A1D3A60CDE900464B46102228E0F1
:107274003B681A1D19783A602846FFF7BDFE8DE772
:107284000A230BF1010BB2FBF3F29BE7A345AFD248
:1072940020212846013CFFF7AFFEA6E77107B0D5D1
:1072A4002B21ABE7A345B6D230212846013CFFF79A
:1072B400A3FEADE73968CDE900460A1D3A604B46A6
:1072C4000A220968ACE73B681A1D3A6016F0010609
:1072D400D3F800A020D1BAF1000F03D0504600F03B
:1072E400B5FD0646B44200D9C4B90AF1FF3A1EE01E
:1072F40028460136FFF780FE1AF806100029F7D158
:10730400A642BFF44BAF002C3FF448AF20212846DF
:10731400013CFFF771FEF3E70026EDE72021284644
:10732400013CFFF769FEDDE72846FFF765FE1AF822
:10733400011F0029F8D131E703B0BDE8F08F2DE932
:10734400F047B0F806904479D2F800A09DF8208068
:1073540009FB04F4043C06460AEB0300A0420F4672
:1073640088BFA4EB030A191DC2F800A0B1FBF9F50C
:1073740009FB15114DB9A9EB0104544528BF544626
:10738400BAF1000F04D1BDE8F0873668013DF1E79A
:1073940004317B1970182246B8F1000F0ED0014653
:1073A4001846AAEB040A00F006FDD14525443668C8
:1073B4004C464FF0000128BF5446E1E71946F0E778
:1073C400FFF7ACBDF8B546790146721E05460023A9
:1073D40093422D6803D30024A64202D8F8BD01339A
:1073E400F6E70F682846FFF7D4FD01343946F3E782
:1073F4002DE9F843068ACD1C0746FFF7A6FD043E97
:1074040035440446B5FBF6F5F0B14FF48073EDB2A4
:107414008380C680013D076081464FF00008A8457F
:1074240012D23846FFF791FD064648B1637901331D
:10743400637108F10108C9F8000007608146EEE7AE
:107444002046FFF7BFFF34462046BDE8F8830121FC
:107454000430FFF741BD10B5012104460430FFF7A5
:1074640046FD10F0FF0F04D12046BDE81040FFF7A1
:10747400A9BF10BD1FB503920022009203AAFFF713
:107484005EFF05B05DF804FB1FB503920122009274
:1074940003AAFFF754FF05B05DF804FB83680022DC
:1074A4005A609A60C3E90422DA601A6070472DE9D1
:1074B400F04106460F4690461D468BB9B068736886
:1074C400D0E9031403F1010C0A1B62450FD1002417
:1074D400C8F800401DB3FFF71EFD0020BDE8F08191
:1074E4008068FFF70FFD0028E8D01120F6E701EAD5
:1074F400030223409A4238BF6444D8F800302CBFBA
:10750400ACEB0204641A9C4228BF1C463368C8F8DA
:10751400004013443B60C3681C44C460DDE7284654
:10752400DCE782684368106910B50133946803444A
:107534001B1B8B420AD30C44C2E902441046FFF7DA
:10754400E7FC002814BF0020082010BD0420FCE73D
:10755400806808B582680369D21A8A4207D30B444B
:10756400C0E904330430FFF7D6FC002008BD042032
:10757400FCE70B684A684360934208BF002301603C
:1075840008BF43607047436843B10268916852681A
:107594000B449342436004BF0023436070470000E0
:1075A400014B1B68184700BFB4610020044B9A6864
:1075B400F1EE103A136C23F09F031364704700BF7D
:1075C40030EF00E02DE9F04F2DED028B002185B066
:1075D400084602AFFFF762F808B1FFF7C7FBFEF7F2
:1075E40093FF6C4C6C4B6D49DFF8C4916C4EE41AFC
:1075F400E408240444F0030044F00504FFF742FACD
:1076040068492046FFF73EFA674BE02283F82623B9
:107614004022C3F884215A606449654B002200204B
:1076240031F8025B586007EE905A0232F8EE677A3E
:10763400B2F5806FC3ED007A03F10803F0D10123A2
:10764400002249465B4800F0C9FF4FF400723146FE
:10765400484601F03DF8524A9FED577A0023D2ED97
:10766400007A013367EE877A9BB2B3F5007FE2ECD0
:10767400017AF4D151234AF2C22250492046FFF73D
:107684000EFAEB463B1DC2B03A464FF480713046C9
:1076940000F00CFC0DF108081425B3EE048A0DF279
:1076A400071A013D07EE905AB8EEE77A08F1FF3366
:1076B400C7EE087A324697ED007A67EE877AB2EC25
:1076C400017AF4EEC77AF1EE10FA4CBF7C21202146
:1076D40003F8011F9A45F2D1002388F8003140468F
:1076E400FFF72CF8364902462046FFF7CFF9FFF79B
:1076F4005FF80028FBD1002DD3D16D46C2B002A89B
:107704000DF107030DF207122D2103F8011F9A4210
:10771400FBD1002380F80031FFF710F82849024616
:107724002046FFF7B3F93B1DAD463A46FF212548F5
:1077340000F0BCFB7D6897ED008A013528467D602A
:1077440000F0CEFA11A3D3E9002300F01BFA00F0F5
:10775400B5FABCEEC88A00902B4618EE102A1A49D6
:107764002046FFF7A6F9DD46FFF722F80028FBD1F3
:10777400164B4FF47A7543F001084FF47A40C04732
:10778400013DFAD148E700BFAFF300805555555588
:1077940055585440508F0200388F0200E690020082
:1077A400BC710020FF90020000E100E0C0570020FF
:1077B400BC610020FC9302000000003B3D910200EC
:1077C4002E900200C071002059910200E090020046
:1077D4000369C1688B429DBF8268D21802F1FF32EF
:1077E40003F1FF3394BF501A581A70472DE9F04142
:1077F400D0E9027405463E1B406896422044884600
:10780400144404D900F0D7FAEC60BDE8F0813246A4
:10781400E41B00F0D0FA224608EB06016868F1E7A1
:107824002DE9F843C5680646894617464FF0000817
:107834003469B3687068A54228BFE418013C621B30
:107844005C1BBC4228BF3C46944228BF14464946B0
:107854002844224600F0AFFAB3682544AB4208BF7F
:1078640000253F1BA044A144F560E1D14046BDE89A
:10787400F883000010B5114C114AA2610223C4E937
:107884000433104BE361A2644FF400730E4A236285
:10789400E264002310220D49A362E01D6362E362E7
:1078A400A3656365E365226500F0AEFA08492046E6
:1078B40000F0AAFA2023A37110BD00BFBC790020F8
:1078C40079910200447A0020347A002082910200E7
:1078D40086910200F8B5184C182300FB033503FB0E
:1078E40000402544C46A012C0F46164611D024B129
:1078F400022C1BD000242046F8BD2846FFF768FF61
:10790400B042F8D3324639462846FFF76FFF344673
:10791400F1E72846FFF75CFF8642344628BF044659
:10792400224639462846FFF761FFE4E72846BDE8CA
:10793400F840FFF775BF00BFBC790020FFF79ABF7E
:10794400054B1B68082B01BF044B1868B0FA80F084
:10795400400918BF002070473001001034010010A6
:1079640008B54FF080430022C3F80C21C3F810215E
:10797400C3F838254FF0805203F54043D2F804147D
:10798400C3F82015D2F80814C3F82415D2F80C143F
:10799400C3F82815D2F81014C3F82C15D2F814140F
:1079A400C3F83015D2F81814C3F83415D2F81C14DF
:1079B400C3F84015D2F82014C3F84415D2F824149F
:1079C400C3F84815D2F82814C3F84C15D2F82C146F
:1079D400C3F85015D2F83014C3F85415D2F834143F
:1079E400C3F86015D2F83814C3F86415D2F83C14FF
:1079F400C3F86815D2F84014C3F86C15D2F84424BF
:107A0400C3F87025FFF79CFF10B1384B384A1A6051
:107A1400FFF796FF18B1374BFB22C3F81825FFF781
:107A24008FFF48B13449354B0A681B6822F00F02B6
:107A340003F00F0313430B60FFF782FF18B1304BC1
:107A44004FF400721A604FF08043D3F80024D20739
:107A540044BF6FF00102C3F800242A4AD2F88830E8
:107A640043F47003C2F88830BFF34F8FBFF36F8FB6
:107A74004FF01023D3F80022002A03DBD3F804329A
:107A8400002B2FDA204B0122C3F80425D3F800245D
:107A9400002AFBD04FF010221221C2F80012D3F8B2
:107AA4000024002AFBD04FF010231222C3F8042232
:107AB400154B1A46D3F800140029FBD00021C3F853
:107AC4000415D2F80034002BFBD0BFF34F8F0D49BF
:107AD4000E4BCA6802F4E0621343CB60BFF34F8FCE
:107AE40000BFFDE70A4B0B4A1A6008BD8C560040E4
:107AF4004881030000F00040E40E004058020010EA
:107B04004096024000ED00E000E001400400FA0568
:107B1400C05B00200090D00307B508496846FFF712
:107B240028FD019B13B903B05DF804FBD3E90020E1
:107B340090476846FFF727FDF3E700BF90910200E6
:107B4400FFF7EABF4BDF70471FB50D4C01A8FFF7E5
:107B5400F9FF70B9214602A8FFF70BFD039B002B28
:107B6400F4D00198D3E90021904702A8FFF70BFD58
:107B7400F4E7052801D0FFF7F9F804B010BD00BF01
:107B8400A4910200F0B540F2FF7681EA030C16EAF4
:107B9400115E1EBFB64516EA1355B5425AD021EA06
:107BA400465141F48011A1FB024723EA465343F4B2
:107BB4008013AE44A0FB03650CF0004C36197D41E4
:107BC400A1FB034747F10003A0FB0217F619654127
:107BD40053F10003094218BF46F0010640F2FE7457
:107BE400B3F5007F13D2AEF5806EA6452BD24CEAD6
:107BF4000331280341EA155140EA1650320345087F
:107C040072F1004250F1000051EB0E51F0BDAEF2A2
:107C1400FF3EA64517D24CEAC321E80241EA55517A
:107C240040EA5650F202450872F1004250F1000059
:107C340051EB0E51F0BD0CF0004141F0FE4141F416
:107C440070010020F0BD1EEA0E0FF4D50CF00041C7
:107C54000020F0BD16EA115F04BF01F000410020CE
:107C6400004218BF41F0010116EA135F04BF03F09C
:107C740000430022124218BF43F0010306EA1354E2
:107C8400B44218BF9EEA060F03D00CF00041002056
:107C9400F0BD21F0004123F00043B1EB065F06D8AC
:107CA400B3EB065F03D8002918BF002BC3D140F201
:107CB4000001C7F6F8710020F0BD00BF0B0D40F2C3
:107CC4001E42D21A07DBCB0243EA505040F0004078
:107CD40030FA02F07047490060EB0000704700BFC3
:107CE40050B140F21D42B0FA80F18840521AC30AE2
:107CF400400503EB02517047010070477F2805D807
:107D0400034B185C034B5B5C1840704700207047C2
:107D1400BC9102003C920200A0F16103192B98BFB0
:107D240020387047A0F14103192B98BF20307047C9
:107D34007F2805D8034B185C034B5B5C18407047E5
:107D440000207047BC9102003C920200A0F1610344
:107D5400192B98BF20387047A0F14103192B98BF05
:107D6400203070477F299ABF017001206FF02E00E8
:107D740070475AB10A787F2A0AD800B102600021FC
:107D840019605960501A18BF0120704700207047CD
:107D94006FF02E007047000008B5034B5B689B68CA
:107DA4001B68984708BD00BFC45B002008B50921C3
:107DB400FFF7F2FF08BD844640EA010313F0030F06
:107DC40018D18446202A0BD32DE9F007B1E8F8072F
:107DD400A0E8F807A2F12002202AF7D2BDE8F007B4
:107DE400042A07D351F8043B40F8043BA2F10402EF
:107DF400042AF7D2002A05D011F8013B00F8013B10
:107E0400013AF9D160467047024610F0030F16D1CB
:107E140011F0030F13D12DE9F0004FF001374FF0AB
:107E2400803351F8044BA4EB070525EA04051D40F3
:107E340002D142F8044BF4E7A1F10401F0BC11F8BB
:107E4400013B02F8013B002BF9D1704700F101011D
:107E540010F0030F11D010F8012B002A23D010F0DA
:107E6400030F0AD010F8012B002A1CD010F0030FC6
:107E740003D010F8012B002A15D02DE970004FF023
:107E840001324FF0803350F8044BA4EB020525EA8D
:107E940004051D4000D1F6E7A0F1040070BC10F801
:107EA400012B002AFBD1A0EB010070472DE9F04122
:107EB4004F1E5FEA970800F1040ED0ED007A58D007
:107EC4001430C4460426002410ED046A50ED036AFD
:107ED40010ED027A50ED015AB4EEE76AF1EE10FAB1
:107EE400C8BFF0EE467AA6F10305F4EEE67AC8BF01
:107EF4002C46F1EE10FA48BFF0EE667AA6F10205C0
:107F0400F4EEC77A48BF2C46F1EE10FA48BFF0EE03
:107F1400477A06F1FF35F4EEE57A48BF2C46F1EED8
:107F240010FA48BF344648BFF0EE657ABCF1010C44
:107F340006F1040600F11000C6D10EEB081E17F07E
:107F4400030018D0081ABEEC017AB4EEE77AF1EE19
:107F540010FAC8BF044600F10100D8BFB0EE677A3A
:107F64008842F0EE477AEED182ED007A1C60BDE8DB
:107F7400F0814446E3E7B0EE677AF5E72DE9F04196
:107F84002DED088BB0F800E042684FEA5E0C01EB7F
:107F94008E085FEADE0E07464FEA8C0300F0AF80DE
:107FA4001033CE181032434401F1100508F11004C7
:107FB40054ED041A13ED044A53ED033A53ED025AF7
:107FC40013ED015A54ED036A14ED020A16ED042A66
:107FD40056ED032A15ED036A15ED017A15ED043A01
:107FE40054ED017A56ED020A16ED011A55ED024AD6
:107FF40073EE21BA36EE26BA37EE27AA72EE049A49
:1080040032EEA39A31EE058A74EE80AA70EEA58A48
:1080140045ED04BA05ED03BA45ED02AA05ED01AA42
:1080240006ED018A46ED049A06ED039A46ED028AAE
:1080340076EE666A73EEE23A12ED036A52ED042AB2
:1080440033EE613A34EE424A26EE868A24EE062A5C
:1080540063EE221A24EE224A23EE063A66EEA26A60
:1080640023EE866A63EEA23A36EE046A76EEC36ABB
:1080740072EE633A71EE882A44ED036A44ED042AF1
:1080840043ED043A03ED036A77EE677A75EEE06A2E
:1080940012ED017A52ED025A35EE416A74EEC04A8D
:1080A40067EE873A26EE875A24EEA54A67EEA57A4C
:1080B40064EE874A66EEA56A26EE077A26EE256AFE
:1080C40077EEE47A74EE235A35EE466A37EE267A72
:1080D400BEF1010E44ED025A05F1100544ED017A9A
:1080E40006F1100603ED026A03ED017A02F11002B3
:1080F40004F1100403F110037FF45AAF7A681FFAF5
:108104008CF408460223214600F02AFCBDEC088BBF
:10811400404621467A680223BDE8F04100F020BCC5
:108124002DE9F04F2DED0A8B028891ED006A8FB096
:108134000F46520893000C900391416897ED017A21
:1081440038461844064609901844D0ED006AD6ED26
:10815400003AD6ED012AD0ED017A0A9076EE265A3D
:10816400044625461C4494ED004A94ED015A0194BA
:1081740075EEA34A304674EE244A3E4614EE90EA65
:1081840076EE666A46F808EB37EE276AD0ED014AC8
:10819400049677EE677A019E32EEA63A96ED012AAE
:1081A40036EE247A75EEE35A77EEE34A36EE626AE7
:1081B40077EEA37A76EEE26A73EE453A044636EE3B
:1081C400456A75EE266AA34637EE027A34EE845A7F
:1081D40013EE908AA44675EEC45A87ED017A4BF8E3
:1081E400088BACF104078CED015A01F1080C2C4604
:1081F400CDF814C015EE90CA44F808CB079401F1E9
:10820400100485ED016A520802942C4601F1180508
:108214000B92B246069577EEC47A023A16EE905A5D
:10822400B646304652084AF8085BA0F10406CEED83
:10823400017A089200F030819146039ADDF80880B3
:10824400CDF834A0083B02F1100501F1200CA4F193
:108254000C0201F1300E334410345046594655EDAA
:10826400023A14ED025A91ED007AD0ED007A15ED40
:10827400014A54ED015AD0ED016A91ED016A33EEE1
:10828400858A34EE250A78EE074A74EE655A77EE4D
:10829400A44A33EEC55A45ED024AD1ED014A90EDA8
:1082A400014A70EE244A76EE05AA74EE844A35EE4D
:1082B400C7AA45ED014AD6ED001AD7ED000A92EDA2
:1082C400024AD3ED023A93ED012A16ED011AD2EDDA
:1082D400012A57ED019A70EEA14A39EE813A74EE03
:1082E400848A70EEE11A73EEA88A7AEEE6AA18EE92
:1082F40090AA47F808A9D2ED018A93ED019A73EE8A
:10830400288A3AEE27AA78EE898A74EE630AC7EDC2
:10831400018A18ED02BA58ED018A39EEC11A6AEEE3
:1083240028BA2AEE8BCA71EEE29A30EE819A79EE7F
:10833400829A3CEE2BCA6AEEA8AA69EEA8BA2AEE83
:108344000BAA69EE8B9A69EE288A29EE0BBA1CEE09
:1083540010AA78EEA98A41F808AB3AEE6AAA3BEE75
:10836400CBBA34EEC44A33EE623A01ED01AAC2ED4F
:10837400018A82ED02BA5CED044A74EE633A38EE87
:10838400478A1CED034A30EE460A33EE423A38EE91
:10839400678A30EE660A23EEE49A63EE048A28EED6
:1083A40024AA60EE049A28EE048A20EE240A63EEDE
:1083B400843A39EE684A7AEE299A14EE10AA30EE1D
:1083C400480A63EE244A44ED029A73EEE43A04ED5B
:1083D400010A46F808A935EE466A35EE877AC6EDF5
:1083E400013A76EE866A77EE677A1EED056A1EED2F
:1083F400067A67EE865A26EE875A72EE622A30EEC5
:10840400C11A72EEE12A75EE255A62EE860A66EE0C
:10841400866A67EE877A21EE066A62EE872A21EE83
:10842400071A15EE90AA77EEE67A40F808AB30EE1C
:10843400C11A76EE222AB9F1010940ED017A05F15B
:10844400080583ED021AC3ED012A08F10808A2F118
:1084540008020CF1100C04F108040EF1180EA3F13B
:1084640008037FF4FCAE08990298DDF834A0CB0031
:1084740001EB410200EB01110291049919440491AA
:1084840005991944059107999B4419449A44069BFC
:10849400079103EBC2030693049A0798D2ED003ABE
:1084A40090ED004ADBED007A9AED003AD2ED014AF4
:1084B40090ED017A9BED012ADAED015ABDF82C40CA
:1084C4000C9E73EE846A34EE876A36EEA75A34EE55
:1084D400C77A33EE055A33EEC44A82ED005A9BED57
:1084E400015ADAED014A36EE055A72EE043A35EED7
:1084F400245A77EE674A82ED015A059A34EE835A7C
:10850400D2ED001AD2ED012A029A73EEE53A36EE64
:10851400426A63EEA14A63EEA23A65EE222A25EE90
:10852400215A74EEA22A35EE635A76EEE76ACBED51
:10853400002A8BED015AD2ED013A92ED005A069AC7
:1085440076EEC36A36EE656A66EE854A26EE055A0D
:1085540066EEA36A26EE236A75EE666A34EE866AD0
:1085640034EE424A37EE277AC0ED016A80ED006AA4
:1085740092ED016A039877EE437A75EE845A92ED90
:10858400007A65EE876A27EE877A65EE865A67EE8B
:10859400867A77EE655A76EEA77ACAED015ACAED65
:1085A400007A72682146042300F0DAF909987268A7
:1085B4002146042300F0D4F90A9872682146042362
:1085C40000F0CEF901987268214604230FB0BDEC87
:1085D4000A8BBDE8F04F00F0C3B900BF2DE9F041AC
:1085E400012A064617460C469846058854D0B5F528
:1085F400807F4CD016D9B5F5806F1AD05CD9B5F50B
:10860400006F44D0B5F5805F05D1204629467268D5
:10861400012300F0A5F9B8F1000F11D1012F16D0F4
:10862400BDE8F081202D32D04AD9402DEDD0802DE7
:10863400F1D130462146FFF7A1FCB8F1000FEDD08F
:108644002046B189B26800F02BF9012FE8D107EE7A
:10865400905AF8EE676AF7EE007AC7EEA66A002D24
:10866400DED004F10801002301339D4201F1080129
:1086740011ED047A51ED037A27EE267A67EEE67A55
:1086840001ED047A41ED037AEED1BDE8F081304684
:108694002146FFF745FDBEE7ADB101F10C03002211
:1086A40053ED027A0132F1EE677A954243ED027A94
:1086B40003F10803F4D19AE7B5F5007FA5D0AAE742
:1086C400102DB6D0A7E7B5F5807F94D8AAE700BFF0
:1086D4002DE9F0415FEA920884B07FD0002700F1D1
:1086E400200401F1100546465AE0B1EEE70AB4EE63
:1086F400400AF1EE10FA40F0A48005ED040A54EDAE
:10870400067A14ED050A67EEA77A20EE000A77EEE2
:10871400807AF5EEC07AF1EE10FAC0F28F80B1EEF5
:10872400E70AB4EE400AF1EE10FA40F0AF8005ED2E
:10873400030A54ED047A14ED030A67EEA77A20EED7
:10874400000A77EE807AF5EEC07AF1EE10FA72DB69
:10875400B1EEE70AB4EE400AF1EE10FA40F08C8074
:1087640005ED020A54ED027A14ED010A67EEA77AC8
:1087740020EE000A77EE807AF5EEC07AF1EE10FA78
:1087840020DBB1EEE70AB4EE400AF1EE10FA69D14B
:10879400013E05ED010A04F1200405F1100519D08C
:1087A40054ED087A14ED070A67EEA77A20EE000A62
:1087B40077EE807AF5EEC07AF1EE10FA95DA45F8A4
:1087C400107C9CE7013E45F8047C04F1200405F18B
:1087D4001005E5D100EB481001EB081112F0030578
:1087E40026D0002600F108040CE0B1EEE70AB4EE4E
:1087F400400AF1EE10FA2ED1013D01ED010A04F117
:10880400080415D054ED027A14ED010A67EEA77A34
:1088140020EE000A043177EE807AF5EEC07AF1EEAC
:1088240010FAE2DA013D41F8046C04F10804E9D1DC
:1088340004B0BDE8F08145F8087C93E745F80C7C6A
:1088440077E7B0EE670A03920291019000F06AFBA9
:1088540001A807C851E7B0EE670A019100F062FB76
:108864000199C9E7B0EE670A03920291019000F002
:1088740059FB01A807C88BE7B0EE670A039202917F
:10888400019000F04FFB01A807C869E7B0EE670A42
:1088940003920291019000F045FB01A807C846E746
:1088A4004B1C012B98BF70472DE9F003911C9B08CA
:1088B400B1F80480B1F802900A8831F802CC8044FF
:1088C400814402448444D9F80070D8F800601568E3
:1088D400DCF80040C9F80060C8F80070CCF800501B
:1088E4001460D9F80470D8F804605568DCF80440C2
:1088F400C9F80460C8F80470CCF804505460083116
:10890400013BD5D1BDE8F00370474B1C012B98BF48
:1089140070472DE9F003911C9B08B1F80480B1F86D
:1089240002900A8831F802CC00EB580800EB590990
:1089340000EB520200EB5C0CD9F80070D8F8006030
:108944001568DCF80040C9F80060C8F80070CCF87D
:10895400005014600831013BDFD1BDE8F0037047DB
:108964002DE9F04F2DED108B9DB01C469FEDC8BA3C
:108974001A92031D824689468B461B9300949E4699
:108984004FEADB035A00D618F51803925A19D01887
:10899400DF0019183C46019757440C930AEBC202B6
:1089A4001B010AEBC10107EB040C009C02930AEBC8
:1089B400C6060AEBC505043204310AEBC0004FEACF
:1089C400CB034FF00008DCED007AD7ED006AD6ED5A
:1089D400003A5EED01AAD5ED004A90ED002A12EDB1
:1089E400017A51ED010A77EE828A33EEA04A76EEDF
:1089F400871A3AEEA43A31EE846A33EE285A36EEF8
:108A0400C77A75EE066A35EE465A4EED016A85ED73
:108A1400005A96ED011AD7ED015A92ED00AA91ED94
:108A2400006A9EED009A95ED015ADCED016AD0EDE5
:108A3400019A73EEE00A71EE462A75EECA3A37EEF1
:108A4400600A33EEA28A37EE207A73EEE22A37EE1A
:108A5400C22A79EE053A60EE0B0A39EE455A7AEEEF
:108A6400E44A36EEA99A75EE8A5A31EE066A76EE33
:108A7400E96A28EE0B8A62EE8B2A67EE0B7A33EEF4
:108A8400683A36EE880A75EE868A36EEC87A71EE52
:108A9400C41A75EE626A33EEC94A35EEC66A33EE1D
:108AA400891A74EEE05A74EEA03A75EE224A32EE58
:108AB400275A72EE677A33EE068A75EE872A31EE0C
:108AC400289A33EE466A74EE610A33EE802A35EE54
:108AD400C77A34EEC53A76EEE75A31EE681A34EEC8
:108AE400214A73EEC03A74EE854A76EEA76AD844FA
:108AF400C1458EED009A85ED011A9E448CED008AE5
:108B04001D4480ED006ACCED010A80ED014A9C44CD
:108B140087ED002A184441ED013A42ED012A86ED21
:108B2400007A87ED013AC1ED004A1F44C2ED005AB4
:108B34001944C6ED016A1A441E443FF644AF0C9929
:108B44000729204640F2E98104EB44073E19351910
:108B5400039C00902246013202EB810200992818FE
:108B640000EB010E0C990A4404EB010C4FEACE040D
:108B74000AEBC20E009A0F94ED001195D5000D95E5
:108B8400019D08351695029D0835140117950F9A15
:108B94001A9D0E94C0001090AA180792109A0C9C6B
:108BA400AA180892119AAA18099201EB81010EF1F0
:108BB40004020A92C9000D9A0C31F6004FEACC0067
:108BC4001491A9180E9A1296FF00AE1908304FEAB4
:108BD4000C1C06961990AA186401EE190CF10C00ED
:108BE4001397049615900391059204F108021892C4
:108BF4004FF00108002202F108010F460B91189969
:108C04008E1816998D1817998C1819998818149913
:108C140001EB020C15990A440399D1ED00FA059968
:108C240091ED00FA0499D1ED00EA069991ED00EA7C
:108C34000999D1ED00DA089991ED00DA0799D1ED9F
:108C440000CA039991ED01CA0599D1ED01BA0499BD
:108C5400D1ED01AA069991ED01AA0999D1ED017A04
:108C64000899CDED007AD1ED017A0799CDED017A1D
:108C7400D1ED017A0AEB070E0A9FCDED027A0CEBD7
:108C84000A0156445544544450445244C44601E0F5
:108C9400F304353F96ED005A52ED019A11ED016A45
:108CA400D0ED007A17ED017ADEED003A94ED003A4A
:108CB40095ED002A9EED010A33EE858A32EE061AFE
:108CC40033EE294A77EE874A78EE041A71EE246A65
:108CD40032EE462A31EEA66A77EEC77A8EED006A46
:108CE400D0ED018A95ED019AD1ED002A97ED007A35
:108CF400D4ED010A96ED016AD2ED005A73EEC53A3D
:108D040033EE693A39EE625A78EEC79A38EE444A3D
:108D140038EE877A30EEA58A79EE222A75EE698AD2
:108D240032EE279A35EE295A72EE677A30EE062A29
:108D340069EE0B9A70EEE55A32EE089A68EE8B8A69
:108D440032EE482A71EE644A25EE0B5A32EE871A47
:108D540067EE8B7A72EEC72A30EE466A73EE290A02
:108D640036EE280A33EE693A32EE647A73EEA79A45
:108D740036EE686A73EEE77A75EE858A74EE223A07
:108D840035EEC55A71EEE66A79EE411A39EEA88AD3
:108D940076EE435A74EE622A72EE244A30EE604A4A
:108DA40079EEE88A30EE200A77EE859A36EE036A89
:108DB40077EEC57A2EEE212A2EEE265A6FEE230A7E
:108DC4002AEE213A39EE011A6AEE266A2BEE879AC8
:108DD4006BEEA33A2FEE077A6FEE841A35EE033A60
:108DE40072EE666A2CEE045A2FEE882A9DED024A32
:108DF4008EED011A77EE633A2CEE088A9DED017A26
:108E040086ED003A30EE899A32EE052A6DEE220A9A
:108E140031EEC88A67EE222A64EE001A27EE247A1D
:108E24002CEEA85A6DEE244A64EE288A9DED004A81
:108E3400C6ED016A74EEE22A6DEEA94A64EE299A3F
:108E440024EE254A30EE877A74EE844A6EEEA70A41
:108E54002AEE864A2CEE800A6DEEA55A6AEEA77AAF
:108E64002EEE866A75EE211A30EE680A75EEE99ADE
:108E740070EE840A36EE676ADC44E14584ED009ABC
:108E8400C4ED013A9E4402ED017AC2ED002A1E446B
:108E940085ED002A85ED018A1C4447ED011A87ED12
:108EA400000A1A4441ED014AC1ED009A1D44C0ED87
:108EB400000A1F4480ED016A194418443FF6EAAEE3
:108EC400039A0D990A4403920E99059A0A4405924D
:108ED4001399049A0A4404921299069A0A4406922F
:108EE4001199099A0A4409921099089A0A44089215
:108EF4000F99079A0A4407920C990A9A08F10108F3
:108F0400083288450A920B9A7FF475AEBDF8343066
:108F14000093C346DDF86CE032E51DB0BDEC108B68
:0A8F2400BDE8F08FB1EEC00A7047FF
:088F30004D7B0200000000006F
:108F3800C890020000000000CC9002000000000071
:108F4800D190020000000000D18F0200000003034E
:108F58009C91020000000303B0910200000003038B
:108F6800988F020000000000A48F0200B85700206C
:108F78001C5C0020E45C0020EC5C0020245C0020E9
:048F880018000000CD
:108F8C00000000000338FDD870470000D9630200D0
:108F9C0045640200D56302007274745F6C6F675F86
:108FAC006261636B656E6400106100207F000000DD
:108FBC00906100204261636B656E647320666C7512
:108FCC007368656400617070000000000B90020013
:108FDC0054900200139002005C9002006490020016
:108FEC006C900200749002007C900200849002004D
:108FFC00202530327800202020007C002563001BC7
:10900C005B306D002573001B5B313B33316D0025EC
:10901C00734C6F67732064726F70706564202825C1
:10902C00642925730D0A003C25733E2025733A20D4
:10903C000000000000000000A59002008C900200CF
:10904C0094900200999002001B5B313B33306D0011
:10905C001B5B313B33326D001B5B313B33336D009B
:10906C001B5B313B33346D001B5B313B33356D0087
:10907C001B5B313B33366D001B5B313B33376D0073
:10908C007761726E696E6700696E666F0064656207
:10909C00756700466174616C206572726F72005363
:1090AC00797374656D207265736574003031323379
:1090BC0034353637383941424344454650525300D3
:1090CC0055415254005541525445000000000000D7
:1090DC00000000000338FDD8704746505520464626
:1090EC0054206578616D706C652073746172746561
:1090FC00642E00546869732069732046505520759E
:10910C0073616765206578616D706C652077697433
:10911C0068204646542063616C63756C6174696F9A
:10912C006E20616E642064726177696E672E0D0A21
:10913C00006653616D706C653A20257520487A2C59
:10914C00207265733A257520487A0D0A004D6178B6
:10915C002076616C75653A202575206174205B253D
:10916C00755D203D20257520487A0D0A00546572E6
:10917C006D696E616C00525454005345474745521B
:10918C0000000000308F0200388F02000800000041
:10919C006E72665F73646800308F0200308F02005D
:1091AC00080000006E72665F7364685F736F630023
:1091BC00202020202020202020682828282820203B
:1091CC002020202020202020202020202020202093
:1091DC00481010101010101010101010101010104B
:1091EC0084848484848484848484101010101010EB
:1091FC001081818181818101010101010101010144
:10920C0001010101010101010101011010101010F7
:10921C001082828282828202020202020202020214
:10922C0002020202020202020202021010101020BC
:10923C0000070320041702010857104080000000AB
:10924C00F0930200B4920200C893020053756E00B2
:10925C004D6F6E0054756500576564005468750059
:10926C004672690053617400000000004A616E0090
:10927C00466562004D617200417072004D6179006B
:10928C004A756E004A756C00417567005365700035
:10929C004F6374004E6F760044656300000000005D
:1092AC00414D00504D000000EC930200E893020089
:1092BC00E8930200E8930200E8930200E8930200AE
:1092CC00E8930200E8930200E8930200E89302009E
:1092DC00FFFFFFFFFFFFFFFFFFFFFFFFFFFF000090
:1092EC0028930200589202006493020078920200C4
:1092FC00AC9202000C930200BC9302001893020083
:10930C00256D2F25642F257900000000256120256F
:10931C0062202565202554202559000053756E6464
:10932C006179004D6F6E6461790054756573646189
:10933C0079005765646E6573646179005468757261
:10934C007364617900467269646179005361747564
:10935C0072646179000000004A616E756172790077
:10936C004665627275617279004D61726368004185
:10937C007072696C004D6179004A756E65004A75B2
:10938C006C79004175677573740053657074656D05
:10939C00626572004F63746F626572004E6F766522
:1093AC006D62657200446563656D626572000000F4
:1093BC0025483A254D3A255300000000017D020056
:1093CC001D7D0200297D0200357D0200517D0200C9
:1093DC005D7D0200697D0200777D020000000000C7
:1093EC002E00000043000000504F5349580000006D
:1093FC00000200000C9402000CA40200C00100004A
:10940C000000803F0000000011FB7F3F900E493CA4
:10941C0043EC7F3FB00AC93C98D37F3F2CC3163D29
:10942C000FB17F3F2FFB483DAB847F3F742B7B3DBF
:10943C006D4E7F3F05A9963D580E7F3F80B6AF3DE0
:10944C006DC47E3F36BDC83DB0707E3F2EBCE13D45
:10945C0024137E3F73B2FA3DCCAB7D3F86CF093EE1
:10946C00AC3A7D3F8340163EC9BF7C3FB6AB223E33
:10947C00283B7C3FA2102F3ECDAC7B3FCF6E3B3EBA
:10948C00BE147B3FC2C5473E02737A3F0115543E62
:10949C009DC7793F135C603E9812793F7F9A6C3E72
:1094AC00F853783FCCCF783EC58B773FC07D823E5A
:1094BC0007BA763F938E883EC6DE753F229A8E3E63
:1094CC000BFA743F31A0943EDD0B743F86A09A3E9C
:1094DC004714733FE59AA03E5213723F128FA63E7B
:1094EC000809713FD47CAC3E73F56F3FEF63B23E1D
:1094FC009ED86E3F2A44B83E93B26D3F4A1DBE3E85
:10950C005E836C3F15EFC33E0C4B6B3F53B9C93EAA
:10951C00A7096A3FCA7BCF3E3CBF683F4136D53E68
:10952C00D86B673F80E8DA3E880F663F4F92E03E8B
:10953C0059AA643F7533E63E5A3C633FBBCBEB3EC6
:10954C0098C5613FEA5AF13E2146603FCBE0F63EBA
:10955C0005BE5E3F275DFC3E532D5D3FE4E7003FBB
:10956C001A945B3F3D9C033F6AF2593F824B063F86
:10957C005348583F9BF5083FE595563F6B9A0B3F78
:10958C0031DB543FDA390E3F4918533FCDD3103FEE
:10959C003D4D513F2A68133F1F7A4F3FD9F6153F77
:1095AC00029F4D3FC07F183FF8BB4B3FC6021B3F8D
:1095BC0012D1493FD17F1D3F65DE473FCBF61F3FA0
:1095CC0003E4453F9967223F00E2433F25D2243F05
:1095DC0070D8413F5636273F67C73F3F1594293F08
:1095EC00F9AE3D3F4AEB2B3F3B8F3B3FDE3B2E3FE3
:1095FC004268393FBB85303F233A373FC9C8323FB9
:10960C00F304353FF304353FC9C8323F233A373FA3
:10961C00BB85303F4268393FDE3B2E3F3B8F3B3FA3
:10962C004AEB2B3FF9AE3D3F1594293F67C73F3FAF
:10963C005636273F70D8413F25D2243F00E2433FA6
:10964C009967223F03E4453FCBF61F3F65DE473F5A
:10965C00D17F1D3F12D1493FC6021B3FF8BB4B3F88
:10966C00C07F183F029F4D3FD9F6153F1F7A4F3FE1
:10967C002A68133F3D4D513FCDD3103F4918533FFE
:10968C00DA390E3F31DB543F6B9A0B3FE595563F71
:10969C009BF5083F5348583F824B063F6AF2593FAF
:1096AC003D9C033F1A945B3FE4E7003F532D5D3F25
:1096BC00275DFC3E05BE5E3FCBE0F63E2146603F9B
:1096CC00EA5AF13E98C5613FBBCBEB3E5A3C633F37
:1096DC007533E63E59AA643F4F92E03E880F663FD1
:1096EC0080E8DA3ED86B673F4136D53E3CBF683FD9
:1096FC00CA7BCF3EA7096A3F53B9C93E0C4B6B3F9F
:10970C0015EFC33E5E836C3F4A1DBE3E93B26D3F68
:10971C002A44B83E9ED86E3FEF63B23E73F56F3F5E
:10972C00D47CAC3E0809713F128FA63E5213723F97
:10973C00E59AA03E4714733F86A09A3EDD0B743F1A
:10974C0031A0943E0BFA743F229A8E3EC6DE753FD2
:10975C00938E883E07BA763FC07D823EC58B773F9D
:10976C00CCCF783EF853783F7F9A6C3E9812793F75
:10977C00135C603E9DC7793F0115543E02737A3FDE
:10978C00C2C5473EBE147B3FCF6E3B3ECDAC7B3F4C
:10979C00A2102F3E283B7C3FB6AB223EC9BF7C3F7C
:1097AC008340163EAC3A7D3F86CF093ECCAB7D3F25
:1097BC0073B2FA3D24137E3F2EBCE13DB0707E3F68
:1097CC0036BDC83D6DC47E3F80B6AF3D580E7F3F61
:1097DC0005A9963D6D4E7F3F742B7B3DAB847F3F3F
:1097EC002FFB483D0FB17F3F2CC3163D98D37F3FD5
:1097FC00B00AC93C43EC7F3F900E493C11FB7F3FC4
:10980C00000000000000803F900E49BC11FB7F3F20
:10981C00B00AC9BC43EC7F3F2CC316BD98D37F3F25
:10982C002FFB48BD0FB17F3F742B7BBDAB847F3FBB
:10983C0005A996BD6D4E7F3F80B6AFBD580E7F3FDC
:10984C0036BDC8BD6DC47E3F2EBCE1BDB0707E3F41
:10985C0073B2FABD24137E3F86CF09BECCAB7D3FDD
:10986C00834016BEAC3A7D3FB6AB22BEC9BF7C3F2F
:10987C00A2102FBE283B7C3FCF6E3BBECDAC7B3FB6
:10988C00C2C547BEBE147B3F011554BE02737A3F5E
:10989C00135C60BE9DC7793F7F9A6CBE9812793F6E
:1098AC00CCCF78BEF853783FC07D82BEC58B773F56
:1098BC00938E88BE07BA763F229A8EBEC6DE753F5F
:1098CC0031A094BE0BFA743F86A09ABEDD0B743F98
:1098DC00E59AA0BE4714733F128FA6BE5213723F77
:1098EC00D47CACBE0809713FEF63B2BE73F56F3F19
:1098FC002A44B8BE9ED86E3F4A1DBEBE93B26D3F81
:10990C0015EFC3BE5E836C3F53B9C9BE0C4B6B3FA6
:10991C00CA7BCFBEA7096A3F4136D5BE3CBF683F64
:10992C0080E8DABED86B673F4F92E0BE880F663F87
:10993C007533E6BE59AA643FBBCBEBBE5A3C633FC2
:10994C00EA5AF1BE98C5613FCBE0F6BE2146603FB6
:10995C00275DFCBE05BE5E3FE4E700BF532D5D3FB7
:10996C003D9C03BF1A945B3F824B06BF6AF2593F82
:10997C009BF508BF5348583F6B9A0BBFE595563F74
:10998C00DA390EBF31DB543FCDD310BF4918533FEA
:10999C002A6813BF3D4D513FD9F615BF1F7A4F3F73
:1099AC00C07F18BF029F4D3FC6021BBFF8BB4B3F89
:1099BC00D17F1DBF12D1493FCBF61FBF65DE473F9C
:1099CC00996722BF03E4453F25D224BF00E2433F01
:1099DC00563627BF70D8413F159429BF67C73F3F04
:1099EC004AEB2BBFF9AE3D3FDE3B2EBF3B8F3B3FDF
:1099FC00BB8530BF4268393FC9C832BF233A373FB5
:109A0C00F30435BFF304353F233A37BFC9C8323F9F
:109A1C00426839BFBB85303F3B8F3BBFDE3B2E3F9F
:109A2C00F9AE3DBF4AEB2B3F67C73FBF1594293FAB
:109A3C0070D841BF5636273F00E243BF25D2243FA2
:109A4C0003E445BF9967223F65DE47BFCBF61F3F56
:109A5C0012D149BFD17F1D3FF8BB4BBFC6021B3F84
:109A6C00029F4DBFC07F183F1F7A4FBFD9F6153FDD
:109A7C003D4D51BF2A68133F491853BFCDD3103FFA
:109A8C0031DB54BFDA390E3FE59556BF6B9A0B3F6D
:109A9C00534858BF9BF5083F6AF259BF824B063FAB
:109AAC001A945BBF3D9C033F532D5DBFE4E7003F21
:109ABC0005BE5EBF275DFC3E214660BFCBE0F63E97
:109ACC0098C561BFEA5AF13E5A3C63BFBBCBEB3E33
:109ADC0059AA64BF7533E63E880F66BF4F92E03ECD
:109AEC00D86B67BF80E8DA3E3CBF68BF4136D53ED5
:109AFC00A7096ABFCA7BCF3E0C4B6BBF53B9C93E9B
:109B0C005E836CBF15EFC33E93B26DBF4A1DBE3E64
:109B1C009ED86EBF2A44B83E73F56FBFEF63B23E5A
:109B2C00080971BFD47CAC3E521372BF128FA63E93
:109B3C00471473BFE59AA03EDD0B74BF86A09A3E16
:109B4C000BFA74BF31A0943EC6DE75BF229A8E3ECE
:109B5C0007BA76BF938E883EC58B77BFC07D823E99
:109B6C00F85378BFCCCF783E981279BF7F9A6C3E71
:109B7C009DC779BF135C603E02737ABF0115543EDA
:109B8C00BE147BBFC2C5473ECDAC7BBFCF6E3B3E48
:109B9C00283B7CBFA2102F3EC9BF7CBFB6AB223E78
:109BAC00AC3A7DBF8340163ECCAB7DBF86CF093E21
:109BBC0024137EBF73B2FA3DB0707EBF2EBCE13D64
:109BCC006DC47EBF36BDC83D580E7FBF80B6AF3D5D
:109BDC006D4E7FBF05A9963DAB847FBF742B7B3D3B
:109BEC000FB17FBF2FFB483D98D37FBF2CC3163DD1
:109BFC0043EC7FBFB00AC93C11FB7FBF900E493CC0
:109C0C00000080BF0000000011FB7FBF900E49BC1C
:109C1C0043EC7FBFB00AC9BC98D37FBF2CC316BD21
:109C2C000FB17FBF2FFB48BDAB847FBF742B7BBDB7
:109C3C006D4E7FBF05A996BD580E7FBF80B6AFBDD8
:109C4C006DC47EBF36BDC8BDB0707EBF2EBCE1BD3D
:109C5C0024137EBF73B2FABDCCAB7DBF86CF09BED9
:109C6C00AC3A7DBF834016BEC9BF7CBFB6AB22BE2B
:109C7C00283B7CBFA2102FBECDAC7BBFCF6E3BBEB2
:109C8C00BE147BBFC2C547BE02737ABF011554BE5A
:109C9C009DC779BF135C60BE981279BF7F9A6CBE6A
:109CAC00F85378BFCCCF78BEC58B77BFC07D82BE52
:109CBC0007BA76BF938E88BEC6DE75BF229A8EBE5B
:109CCC000BFA74BF31A094BEDD0B74BF86A09ABE94
:109CDC00471473BFE59AA0BE521372BF128FA6BE73
:109CEC00080971BFD47CACBE73F56FBFEF63B2BE15
:109CFC009ED86EBF2A44B8BE93B26DBF4A1DBEBE7D
:109D0C005E836CBF15EFC3BE0C4B6BBF53B9C9BEA2
:109D1C00A7096ABFCA7BCFBE3CBF68BF4136D5BE60
:109D2C00D86B67BF80E8DABE880F66BF4F92E0BE83
:109D3C0059AA64BF7533E6BE5A3C63BFBBCBEBBEBE
:109D4C0098C561BFEA5AF1BE214660BFCBE0F6BEB2
:109D5C0005BE5EBF275DFCBE532D5DBFE4E700BFB3
:109D6C001A945BBF3D9C03BF6AF259BF824B06BF7E
:109D7C00534858BF9BF508BFE59556BF6B9A0BBF70
:109D8C0031DB54BFDA390EBF491853BFCDD310BFE6
:109D9C003D4D51BF2A6813BF1F7A4FBFD9F615BF6F
:109DAC00029F4DBFC07F18BFF8BB4BBFC6021BBF85
:109DBC0012D149BFD17F1DBF65DE47BFCBF61FBF98
:109DCC0003E445BF996722BF00E243BF25D224BFFD
:109DDC0070D841BF563627BF67C73FBF159429BF00
:109DEC00F9AE3DBF4AEB2BBF3B8F3BBFDE3B2EBFDB
:109DFC00426839BFBB8530BF233A37BFC9C832BFB1
:109E0C00F30435BFF30435BFC9C832BF233A37BF9B
:109E1C00BB8530BF426839BFDE3B2EBF3B8F3BBF9B
:109E2C004AEB2BBFF9AE3DBF159429BF67C73FBFA7
:109E3C00563627BF70D841BF25D224BF00E243BF9E
:109E4C00996722BF03E445BFCBF61FBF65DE47BF52
:109E5C00D17F1DBF12D149BFC6021BBFF8BB4BBF80
:109E6C00C07F18BF029F4DBFD9F615BF1F7A4FBFD9
:109E7C002A6813BF3D4D51BFCDD310BF491853BFF6
:109E8C00DA390EBF31DB54BF6B9A0BBFE59556BF69
:109E9C009BF508BF534858BF824B06BF6AF259BFA7
:109EAC003D9C03BF1A945BBFE4E700BF532D5DBF1D
:109EBC00275DFCBE05BE5EBFCBE0F6BE214660BF93
:109ECC00EA5AF1BE98C561BFBBCBEBBE5A3C63BF2F
:109EDC007533E6BE59AA64BF4F92E0BE880F66BFC9
:109EEC0080E8DABED86B67BF4136D5BE3CBF68BFD1
:109EFC00CA7BCFBEA7096ABF53B9C9BE0C4B6BBF97
:109F0C0015EFC3BE5E836CBF4A1DBEBE93B26DBF60
:109F1C002A44B8BE9ED86EBFEF63B2BE73F56FBF56
:109F2C00D47CACBE080971BF128FA6BE521372BF8F
:109F3C00E59AA0BE471473BF86A09ABEDD0B74BF12
:109F4C0031A094BE0BFA74BF229A8EBEC6DE75BFCA
:109F5C00938E88BE07BA76BFC07D82BEC58B77BF95
:109F6C00CCCF78BEF85378BF7F9A6CBE981279BF6D
:109F7C00135C60BE9DC779BF011554BE02737ABFD6
:109F8C00C2C547BEBE147BBFCF6E3BBECDAC7BBF44
:109F9C00A2102FBE283B7CBFB6AB22BEC9BF7CBF74
:109FAC00834016BEAC3A7DBF86CF09BECCAB7DBF1D
:109FBC0073B2FABD24137EBF2EBCE1BDB0707EBF60
:109FCC0036BDC8BD6DC47EBF80B6AFBD580E7FBF59
:109FDC0005A996BD6D4E7FBF742B7BBDAB847FBF37
:109FEC002FFB48BD0FB17FBF2CC316BD98D37FBFCD
:109FFC00B00AC9BC43EC7FBF900E49BC11FB7FBFBC
:10A00C0000000080000080BF900E493C11FB7FBF18
:10A01C00B00AC93C43EC7FBF2CC3163D98D37FBF1D
:10A02C002FFB483D0FB17FBF742B7B3DAB847FBFB3
:10A03C0005A9963D6D4E7FBF80B6AF3D580E7FBFD4
:10A04C0036BDC83D6DC47EBF2EBCE13DB0707EBF39
:10A05C0073B2FA3D24137EBF86CF093ECCAB7DBFD5
:10A06C008340163EAC3A7DBFB6AB223EC9BF7CBF27
:10A07C00A2102F3E283B7CBFCF6E3B3ECDAC7BBFAE
:10A08C00C2C5473EBE147BBF0115543E02737ABF56
:10A09C00135C603E9DC779BF7F9A6C3E981279BF66
:10A0AC00CCCF783EF85378BFC07D823EC58B77BF4E
:10A0BC00938E883E07BA76BF229A8E3EC6DE75BF57
:10A0CC0031A0943E0BFA74BF86A09A3EDD0B74BF90
:10A0DC00E59AA03E471473BF128FA63E521372BF6F
:10A0EC00D47CAC3E080971BFEF63B23E73F56FBF11
:10A0FC002A44B83E9ED86EBF4A1DBE3E93B26DBF79
:10A10C0015EFC33E5E836CBF53B9C93E0C4B6BBF9E
:10A11C00CA7BCF3EA7096ABF4136D53E3CBF68BF5C
:10A12C0080E8DA3ED86B67BF4F92E03E880F66BF7F
:10A13C007533E63E59AA64BFBBCBEB3E5A3C63BFBA
:10A14C00EA5AF13E98C561BFCBE0F63E214660BFAE
:10A15C00275DFC3E05BE5EBFE4E7003F532D5DBFAF
:10A16C003D9C033F1A945BBF824B063F6AF259BF7A
:10A17C009BF5083F534858BF6B9A0B3FE59556BF6C
:10A18C00DA390E3F31DB54BFCDD3103F491853BFE2
:10A19C002A68133F3D4D51BFD9F6153F1F7A4FBF6B
:10A1AC00C07F183F029F4DBFC6021B3FF8BB4BBF81
:10A1BC00D17F1D3F12D149BFCBF61F3F65DE47BF94
:10A1CC009967223F03E445BF25D2243F00E243BFF9
:10A1DC005636273F70D841BF1594293F67C73FBFFC
:10A1EC004AEB2B3FF9AE3DBFDE3B2E3F3B8F3BBFD7
:10A1FC00BB85303F426839BFC9C8323F233A37BFAD
:10A20C00F304353FF30435BF233A373FC9C832BF97
:10A21C004268393FBB8530BF3B8F3B3FDE3B2EBF97
:10A22C00F9AE3D3F4AEB2BBF67C73F3F159429BFA3
:10A23C0070D8413F563627BF00E2433F25D224BF9A
:10A24C0003E4453F996722BF65DE473FCBF61FBF4E
:10A25C0012D1493FD17F1DBFF8BB4B3FC6021BBF7C
:10A26C00029F4D3FC07F18BF1F7A4F3FD9F615BFD5
:10A27C003D4D513F2A6813BF4918533FCDD310BFF2
:10A28C0031DB543FDA390EBFE595563F6B9A0BBF65
:10A29C005348583F9BF508BF6AF2593F824B06BFA3
:10A2AC001A945B3F3D9C03BF532D5D3FE4E700BF19
:10A2BC0005BE5E3F275DFCBE2146603FCBE0F6BE8F
:10A2CC0098C5613FEA5AF1BE5A3C633FBBCBEBBE2B
:10A2DC0059AA643F7533E6BE880F663F4F92E0BEC5
:10A2EC00D86B673F80E8DABE3CBF683F4136D5BECD
:10A2FC00A7096A3FCA7BCFBE0C4B6B3F53B9C9BE93
:10A30C005E836C3F15EFC3BE93B26D3F4A1DBEBE5C
:10A31C009ED86E3F2A44B8BE73F56F3FEF63B2BE52
:10A32C000809713FD47CACBE5213723F128FA6BE8B
:10A33C004714733FE59AA0BEDD0B743F86A09ABE0E
:10A34C000BFA743F31A094BEC6DE753F229A8EBEC6
:10A35C0007BA763F938E88BEC58B773FC07D82BE91
:10A36C00F853783FCCCF78BE9812793F7F9A6CBE69
:10A37C009DC7793F135C60BE02737A3F011554BED2
:10A38C00BE147B3FC2C547BECDAC7B3FCF6E3BBE40
:10A39C00283B7C3FA2102FBEC9BF7C3FB6AB22BE70
:10A3AC00AC3A7D3F834016BECCAB7D3F86CF09BE19
:10A3BC0024137E3F73B2FABDB0707E3F2EBCE1BD5C
:10A3CC006DC47E3F36BDC8BD580E7F3F80B6AFBD55
:10A3DC006D4E7F3F05A996BDAB847F3F742B7BBD33
:10A3EC000FB17F3F2FFB48BD98D37F3F2CC316BDC9
:10A3FC0043EC7F3FB00AC9BC11FB7F3F900E49BCB8
:10A40C0008000002100000041800000620000008DC
:10A41C002800000A3000000C3800000E48004002F2
:10A42C005000400458004006600040086800400A94
:10A43C007000400C7800400E880080029000800470
:10A44C0098008006A0008008A800800AB000800C4C
:10A45C00B800800EC800C002D000C004D800C006EE
:10A46C00E000C008E800C00AF000C00CF800C00E04
:10A47C000801000310010005180100072001000964
:10A48C002801000B3001000D3801000F480140037A
:10A49C005001400558014007600140096801400B1C
:10A4AC007001400D7801400F8801800390018005F8
:10A4BC0098018007A0018009A801800BB001800DD4
:10A4CC00B801800FC801C003D001C005D801C00776
:10A4DC00E001C009E801C00BF001C00DF801C00F8C
:10A4EC001002080418020806200208082802080AAC
:10A4FC003002080C3802080E500248045802480674
:10A50C00600248086802480A7002480C7802480E3B
:10A51C009002880498028806A0028808A802880A7B
:10A52C00B002880CB802880ED002C804D802C80643
:10A53C00E002C808E802C80AF002C80CF802C80E0B
:10A54C001003080518030807200308092803080B43
:10A55C003003080D3803080F50034805580348070B
:10A56C00600348096803480B7003480D7803480FD3
:10A57C009003880598038807A0038809A803880B13
:10A58C00B003880DB803880FD003C805D803C807DB
:10A59C00E003C809E803C80BF003C80DF803C80FA3
:10A5AC0018041006200410082804100A3004100C9B
:10A5BC003804100E58045006600450086804500A01
:10A5CC007004500C7804500E98049006A004900867
:10A5DC00A804900AB004900CB804900ED804D006CD
:10A5EC00E004D008E804D00AF004D00CF804D00E33
:10A5FC0018051007200510092805100B3005100D43
:10A60C003805100F58055007600550096805500BA8
:10A61C007005500D7805500F98059007A00590090E
:10A62C00A805900BB005900DB805900FD805D00774
:10A63C00E005D009E805D00BF005D00DF805D00FDA
:10A64C00200618082806180A3006180C3806180EAA
:10A65C00600658086806580A7006580C7806580E9A
:10A66C00A0069808A806980AB006980CB806980E8A
:10A67C00E006D808E806D80AF006D80CF806D80E7A
:10A68C00200718092807180B3007180D3807180F62
:10A69C00600758096807580B7007580D7807580F52
:10A6AC00A0079809A807980BB007980DB807980F42
:10A6BC00E007D809E807D80BF007D80DF807D80F32
:10A6CC002808200A3008200C3808200E6808600A78
:10A6DC007008600C7808600EA808A00AB008A00CDE
:10A6EC00B808A00EE808E00AF008E00CF808E00E44
:10A6FC002809200B3009200D3809200F6809600B40
:10A70C007009600D7809600FA809A00BB009A00DA5
:10A71C00B809A00FE809E00BF009E00DF809E00F0B
:10A72C00300A280C380A280E700A680C780A680E51
:10A73C00B00AA80CB80AA80EF00AE80CF80AE80E41
:10A74C00300B280D380B280F700B680D780B680F29
:10A75C00B00BA80DB80BA80FF00BE80DF80BE80F19
:10A76C00380C300E780C700EB80CB00EF80CF00ED5
:10A77C00380D300F780D700FB80DB00FF80DF00FBD
:10A78C0000000000FF00000050226021E01E701C41
:10A79C00301B001C701EF020F02020226021001FB6
:10A7AC00801C401BE01B301EC02020225021101F9B
:10A7BC00601C001BB01B001E802000225021201F9B
:10A7CC00901C201B901BC01DA02000229021701FEC
:10A7DC00C01C201BA01B801D2020D0217021701FAD
:10A7EC00C01C201B501B701D0020A0217021701F4D
:10A7FC00E01CF01A201B301DA01F80218021901F0F
:10A80C00001D201B201B001DC01FA021B0210020FB
:10A81C00301D301B201BE01CE01C701F7021902190
:10A82C000020701D301B001BB01C301F4021B021BC
:10A83C002020701D501BE01A601C101F4021A0210D
:10A84C005020801D301BA01A201CC01E1021C021BE
:10A85C005020B01D601BC01A001CA01E1021B0217E
:10A86C007020F01D701BC01AE01B501ED020B021B0
:10A87C006020001E801B901AC01B501EB020A0210F
:10A88C009020101E901B901A801B001E902090216F
:10A89C00B020301EC01B801A801A501BB01D4020E7
:10A8AC008021B020701E301BE019B01A001D801FD3
:10A8BC00B0204020D01D201BD019901AC01C601F46
:10A8CC00C0201020F01D601BD019601A801C301F96
:10A8DC00D0206020601EB01B201A601A501C201F54
:10A8EC00E020A020A01E001C401A501A701C001F53
:10A8FC00D020C020A01E001C401A601A601C001F33
:10A90C00F020C020D01E301C501A401A201CD01E23
:10A91C00D020E020301F901C901CB01A701A001C24
:10A92C00A01EE0201021501FB01CA01A501A001CB1
:10A93C00801EA0205021A01F001DE01A601AE01BF1
:10A94C00701EA0201021D01F101DD01A101A901BA1
:10A95C00301E70202021E01F601D101B301A901B30
:10A96C00101E80203021E01F701D101B601A601B10
:10A97C00F01D402020212020C01D401B401A501BE0
:10A98C00E01D602060216020001E701B701A501B9F
:10A99C00A01D3020502170207020201E901B601AAA
:10A9AC00301B601D002040218020501ED01B601ADF
:10A9BC00001B601DF01F5021B020901EE01B701A70
:10A9CC00F01A301DD01F4021D020C01E001C801A50
:10A9DC00E01A001DB01F3021F020E01E301CA01A20
:10A9EC00101B101D801F30211021F01E701C901A9E
:10A9FC00D01AC01C701F50213021601FB01CF01ADF
:10AA0C00001BC01C701F40216021801FE01C001B1C
:10AA1C00D01AA01C201F102110217021A01FE01C97
:10AA2C00001BC01A501C001F20216021B01F201DCC
:10AA3C00101B901A201CC01E10218021F01F701DAD
:10AA4C00301BB01A101CD01EE020A0213020901D0D
:10AA5C00801BB01A001CA01EE02090214020D01DAD
:10AA6C00901BD01A101C801EF020C0219020201E9C
:10AA7C00B01BD01A101C601EC020D021A020401E7C
:10AA8C00C01BA01AA01B001E8020A021B020501EAD
:10AA9C00501AC019201B801D801DB01F8020401F24
:10AAAC00D01C701AA019F01A501DA01F9020601F06
:10AABC00D01C801AC019A01A101D801F8020401FA6
:10AACC00E01CA01AA019801AF01C601F6020901FB7
:10AADC00001D901A6019301A901C001F2020801F36
:10AAEC00201DA01A8019401A701CE01E5020901FC7
:10AAFC00701DD01A5019201A301CC01E1020701F47
:10AB0C00601DE01A6019D019F01B901EF01FA01FD9
:10AB1C00701DF01A7019C019C019C01B501EF01FFF
:10AB2C00A01FB01D201B8019A019A01B501EE01FD8
:10AB3C00C01FB01D401B70199019601B101EE01F28
:10AB4C00C01FD01D501B80196019401BD01D901FB9
:10AB5C00D01F101E601BA0195019201BA01D801F98
:10AB6C00C01F101E901B80194019101B901DA01F98
:10AB7C00E01F401EA01BB0195019D01A501D501FB9
:10AB8C00C01F601EC01BA0190090D0034C92020085
:10AB9C004C9202004C9202004C9202004C92020029
:040000032000637501
:00000001FF
