:020000022000DC
:1060000000000420756302005D6302005F6302000C
:106010006163020063630200656302000000000028
:1060200000000000000000000000000067630200A4
:1060300069630200000000006B6302006D630200F0
:106040006F6302006F630200DD7602006F6302007F
:106050006F6302006F6302006F6302006F630200F0
:106060006F6302006F6302006F6302006F630200E0
:106070006F6302006F6302006F6302006F630200D0
:106080006F6302006F6302006F6302006F630200C0
:106090006F6302006F6302007D8402006F63020081
:1060A0006F6302006F6302006F6302006F630200A0
:1060B0006F6302006F630200000000000000000038
:1060C0006F6302006F6302006F6302006F63020080
:1060D0006F6302006F630200218002006F630200A1
:1060E0006F6302006F6302006F6302000000000034
:1060F000000000006F630200000000006F630200F8
:10610000000000000000000000000000000000008F
:10611000000000000000000000000000000000007F
:10612000000000000000000000000000000000006F
:10613000000000000000000000000000000000005F
:10614000000000000000000000000000000000004F
:10615000000000000000000000000000000000003F
:10616000000000000000000000000000000000002F
:10617000000000000000000000000000000000001F
:10618000000000000000000000000000000000000F
:1061900000000000000000000000000000000000FF
:1061A00000000000000000000000000000000000EF
:1061B00000000000000000000000000000000000DF
:1061C00000000000000000000000000000000000CF
:1061D00000000000000000000000000000000000BF
:1061E00000000000000000000000000000000000AF
:1061F000000000000000000000000000000000009F
:10620000354936480A1A02D0072291438D4634494F
:1062100034480A1A06D00722914381F309880222E2
:1062200082F3148830483149314A00F044F831484B
:106230003149324A00F03FF831483249324A00F0E1
:106240003AF832483249334A00F035F83248334997
:10625000334A00F030F833483349344A00F02BF821
:1062600033483449344A00F026F83448344900228F
:1062700000F02CF833483449002200F027F8334866
:106280003349091A082902DB002202604160314AC1
:1062900090471F481F49884205D00268043003B464
:1062A000904703BCF7E700208646EC46002000211B
:1062B000294A9047FEE7884207D0521A05D0037852
:1062C00001300B700131013AF9D17047884202D098
:1062D00002700130FAE770470000042000E003205C
:1062E000000004200000042080A40200B857002011
:1062F000F0570020D4630200D4630200429D0200E4
:1063000080A40200B8570020B8570020A09D0200CA
:10631000A09D0200A09D0200A09D0200A09D020081
:10632000A09D0200A09D0200A09D020080A402008A
:10633000B8A40200F0570020F0570020F0570020CA
:106340003861002038610020386100203861002069
:10635000388100209D63020039800200FEE7FEE7DD
:10636000FEE7FEE7FEE7FEE7FEE7FEE7FEE7FEE705
:10637000704700BF1048804710484FF0070188431E
:1063800085460F4880470F48016841F4700101605D
:10639000BFF34F8FBFF36F8FFFF732BF0A480B4930
:1063A0000B4A884207D0521A05D0037801300B708F
:1063B0000131013AF9D170477163020000000420F5
:1063C0009D82020088ED00E0A09D0200B8570020E9
:0463D000B85700209A
:1063D400F0B595B01C46164608460D4601F063F824
:1063E4001A9B0D93CDE9086400242346082205A9CD
:1063F40028460A948DF82C400C9401F071F8079B00
:106404000293069B03939DF814308DF8114003F01A
:106414000302012A1DD1BDF81440059EC3F3C20333
:10642400C4F383148DF81030A20008230EA9284663
:1064340001F056F8C6F3952608AB0093224602AB4A
:106444000EA9304600F0F8FB284601F030F815B0EC
:10645400F0BD022AF8D1BDF81640C3F3C203A40963
:106464008DF810300827082C264628BF08263B46FE
:1064740032460EA9284601F033F8A41B08AB02AA41
:1064840031460EA8374400F03BFC002CEBD1DBE78F
:106494007047000007B5044B0093044A4023FFF7FC
:1064A40097FF03B05DF804FBF5640200F157002088
:1064B40030B50C4D0FCD89B06C460FC495E80F0074
:1064C40084E80F000623002269460748009301F080
:1064D400C7F808B100F06EFC044B00221A7009B032
:1064E40030BD00BFA09D0200B8570020F057002027
:1064F40038B50D4B0D4D002018700D4804782D5DF6
:10650400D2B21C4665B1043001F046FD08B100F07A
:1065140051FC084B1A7812B12378002BFBD038BDFC
:106524000C3001F023FBF1E731580020DC5D002042
:10653400B8570020F057002008B50848084A0378E7
:10654400D35C33B1043001F0D1FCBDE80840FFF75F
:10655400AFBF0C3001F0B4FAF7E700BFB857002022
:10656400DC5D0020FFF7A4BF08B5FFF7FBFF0421A3
:10657400034800F0CFFA034B01225A7108BD00BF53
:106584007C9D0200CC570020037813F0040216D03F
:1065940003F00303012B03D0022B09D00120704721
:1065A4000A6800880232C0F3831002440A60F5E7E7
:1065B4000B684288023303EB92130B60EEE710463C
:1065C400704700002DE9F04F87B000230446851C76
:1065D4000DF107000F4690468DF8073000F030FCAF
:1065E400454806683E60D0E90132134401339B1BE1
:1065F400824600F21C4600F5836900F21447AB4260
:106604001BD30022B8F1000F70D0052363F30702F7
:1066140064F38912DAF80010DAF808309DF80700FC
:106624000B4003330D444AF82320CAF8005000F00D
:106634002BFC012007B0BDE8F08F0121304600F0AB
:106644006FFC484600F085FC384600F082FCDAF81E
:106654000400DAF808B0029000EA0B0003300AEBF9
:10666400800002A9FFF790FF029B50BB0BEA0302D4
:106674000AEB820203F1020CD2680392013303EAAB
:106684000B0B0AEB8B0B02F00302012ACDF808C0B6
:10669400DBF80C1022D0022A16D08346384600F0CC
:1066A4005BFC10B1029BCAF804305946304600F036
:1066B40037FCDAE901231344DAF8002001339B1A8A
:1066C4009DE70BEA0300C9E7BDF80E309B090333CD
:1066D4004FEA114B0CEB93030293DFE7BDF80C3048
:1066E400C3F383134FEA114B6344F5E7062363F3C3
:1066F400070264F39F528DE7045900200B4B0C48AA
:10670400FF2210B59A600022C3F81824C3E90022BE
:10671400C3F81424012283F8202400F07DFE0446EB
:1067240010B9044800F0E6FE204610BD04590020CC
:106734008C9D0200E09D020030B50A4C71B10A4AFA
:106744000A49121BD20800239A4201D1002030BD0D
:1067540031F82350854202D00133F5E7034654F85B
:106764003300F4E74C9D02007C9D0200B8570020E2
:10677400094B013903EBC000032909D8DFE801F014
:106784000A02040604207047007970474079704774
:1067940000207047022070474C9D0200154B93F86F
:1067A400203437B504460BB918B90024204603B089
:1067B40030BD02F054FA0130009001236A4601A969
:1067C4000D4800F0A0FE05460028EED12146009AAF
:1067D400019802F01BFADDE900231344064803F88C
:1067E400015C009900F0C9FE0099034800F0DCFE4A
:1067F400019CDBE704590020E09D0200034BD3E930
:106804000030C31A58425841704700BF0459002051
:106814002DE9F04387B0FFF7F1FF0646002840F06A
:10682400FB807E4DC5F81804BFF34F8F6868AC68D1
:1068340002902040033005EB800002A9FFF7A4FE7C
:10684400029B18B1D5F81824002A5FD004EA030289
:10685400991C013305EB8202234005EB8303D268C4
:10686400DB68049302F00303022B0392029162D1CA
:10687400BDF80E306A484FEA9318B8F1500FC1467C
:1068840028BF4FF0500969F38F1309F10801ADF8DF
:106894000E3000F0D9FD0746002800F0A88000F073
:1068A40002FE03A900230822384600F00FFE0299D5
:1068B40024EA01060136B600B14535D95FFA89F9F3
:1068C4007EB3F6B2A9EB0609214003315FFA89F4DD
:1068D400B146544E05EB810108234A46384600F080
:1068E400F5FD36B109F1080322463146384600F079
:1068F400EDFD029B08F1030803EB98030293D5F81E
:106904001834002B4BD1D5F810445BE02A689A4226
:1069140004D86A60304607B0BDE8F08304EA030097
:1069240088E740493446D7E72140033108234A46E3
:1069340005EB8101DAE7012B59D1BDF80C30384859
:10694400C3F38311062928BF062161F38913023199
:106954008900ADF80C3000F077FD0746002846D0DA
:1069640000F0A1FD0023082203A9384600F0AEFD83
:106974000026BDF80C20C2F38312B300964203F143
:106984000803BCD202994A1C21400331029205EB50
:1069940081010422384600F099FD0136E9E73846C2
:1069A40000F085FDFFF72AFF80F00100C6B2B1E7D1
:1069B400E3685B7923B1236839461B68204698470E
:1069C400E3681C68002CF3D1384600F070FD0DF12B
:1069D40007008DF8074000F033FAD5F818340BB9E6
:1069E400029B6B609DF8070000F04EFADAE7D5F8D9
:1069F400104454B90C4B0D480D49C01AC00800048A
:106A040040F0020000F06EF8CCE7236820469B6853
:106A14009847E3681C68ECE700267BE704590020EC
:106A24008C9D0200105900204C9D0200649D0200C0
:106A3400EC9D02002DE9F74F284C80460F46924604
:106A440001A9012218469B46D4F80890FFF7BAFD25
:106A540080B3019D0026A91C5E4506EB010233D1DB
:106A640000211F4800F026FA80F310006A1C02EA95
:106A7400090204EB8202000405EA0903033340EA35
:106A84001840D06014F8232068F3C50204F82320CA
:106A940034F8232066F3891224F8232054F82320A1
:106AA40067F39F2244F8232002F0F80242F0010227
:106AB40004F8232094F820341BB1FFF7A9FE002822
:106AC400FBD103B0BDE8F08F09EA020204EB8202B5
:106AD4005AF82630D3600136BEE700BF04590020BF
:106AE400205D002000231A46FFF7A4BF07B5012349
:106AF400019201AAFFF79EFF03B05DF804FB07B5FE
:106B0400CDE9002302236A46FFF794FF03B05DF842
:106B140004FB000030B50F49D1F8102400231446BB
:106B24003CB9C468237152B9C1F8100422601846F4
:106B340030BDE46825799D4206D02468F0E7D26828
:106B4400116821601060F2E701330A2BE7D14FF09E
:106B5400FF33ECE704590020094A38B50123D2F881
:106B6400104482F820341D4604B938BDE3685D71D1
:106B7400236820465B689847E3681C68F4E700BF15
:106B840004590020037A052B10B50C460FD0437A24
:106B940023B1084A0849204600F044FA0749204630
:106BA40000F040FA2046BDE8104000F030BA002A58
:106BB400F8D0F3E7379E02003C9E02006A9F020071
:106BC400C38873B504460D4633B1144A0092144980
:106BD400144A284600F026FA217A05291CD0637A43
:106BE4004BB1A088FFF7C4FD0F4B104953F8202088
:106BF400284600F017FA227A0D4BA08853F8226039
:106C04000021FFF799FD0B4903463246284602B09E
:106C1400BDE8704000F006BA02B070BD379E0200B5
:106C2400479E02003F9E0200049E02003C9E02001A
:106C34006C9E02005F9E02002DE9F04385B01F4662
:106C44000C9D002306460C46904695F80C902B7339
:106C540029463846FFF7B4FFB8F1060F09D8DFE834
:106C640008F00412181F283340003146284600F06B
:106C7400D9F9002229463846FFF784FF85F80C909D
:106C840005B0BDE8F08322683146284600F0CAF911
:106C9400EFE7D4E900233146284600F0C3F9E8E7DA
:106CA400A36800933146D4E90023284600F0BAF9DA
:106CB400DFE7E3680193A36800933146D4E9002336
:106CC400284600F0AFF9D4E723690293E3680193FF
:106CD400A36800933146D4E90023284600F0A2F9C2
:106CE400C7E76369039323690293E3680193A36885
:106CF40000933146D4E90023284600F093F9B8E71D
:106D040008292DE9F84F80460E4617461C463AD806
:106D1400002593F80C901D7319461046FFF750FF99
:106D2400DFF884A0DFF884B0AE422ED918F805202D
:106D34005946204600F076F90135082DF4D118495A
:106D4400DFF86CB0204600F06DF94FF0000A5645AC
:106D540020D918F80A507E2D03D8284601F040FFA8
:106D640000B92E252A465946204600F05BF90AF15F
:106D7400010ABAF1080FEAD1012221463846FFF789
:106D840001FF84F80C90BDE8F88F5146204600F0CE
:106D940049F9D1E70349204600F044F9E7E700BF89
:106DA400329E0200309E02002E9E0200289E0200A7
:106DB400349E02001FB50021039001AA44F2010091
:106DC400CDE9011100F004F805B05DF804FB000002
:106DD40010B572B6FFF7C0FEFFF71AFD0028FBD10D
:106DE400104B114C1149E41AE408240444F0010046
:106DF400FFF778FE0E4B1B68DB0700D500BE0D497C
:106E040044F00200FFF76EFEBFF34F8F0A490B4BAD
:106E1400CA6802F4E0621343CB60BFF34F8F00BF34
:106E2400FDE700BF4C9D0200649D0200CB9E020062
:106E3400F0ED00E0D79E020000ED00E00400FA054A
:106E440070B5EFF3108672B60C4A946801239CB9AE
:106E540093600B4B0B4DD3F8801029401160C3F89D
:106E64008050D3F8841051604FF0FF32C3F884206F
:106E7400047006B962B670BD0370FAE7C05D002005
:106E840000E100E0FC06FFBD084B9A6810B55AB15A
:106E940050B9EFF3108172B6054A1C6814605C683F
:106EA4005460986001B962B610BD00BFC05D002097
:106EB40000E100E050E8002F0B4640E8003C9CF065
:106EC400000FF7D11046704750E8002F42EA010343
:106ED40040E8003C9CF0000FF6D11046704750E8A3
:106EE400003F43EA010240E8002C9CF0000FF6D179
:106EF4001046704750E8002F02EA010340E8003CC6
:106F04009CF0000FF6D11046704750E8003F03EAAA
:106F1400010240E8002C9CF0000FF6D110467047A7
:106F240050E8003F03EB010240E8002C9CF0000F06
:106F3400F6D11046704750E8003FA3EB010240E849
:106F4400002C9CF0000FF6D1104670470121FFF78A
:106F5400BBBF0121FFF7C3BF0021FFF7CBBF002157
:106F6400FFF7D3BF10B590B1D0E9012301689B1A94
:106F7400DBB20A60013BDBB2FF2B026802D10020C6
:106F8400107110BD11684C1C14600B70F2E70E20D8
:106F9400F7E737B5054600240DF107008DF80740E3
:106FA400FFF74EFF2A686B68116899420ED9481E94
:106FB400106011F8014CEB68298A01FB0434AB68BA
:106FC40011791B1ADBB2994238BF13719DF807007F
:106FD400FFF75AFF204603B030BD37B505460023FE
:106FE4000DF107000C468DF80730FFF729FF2A68DA
:106FF4001368591C1160E968641A298AB4FBF1F416
:107004001C709DF80700FFF73FFF03B030BD826896
:1070140010B504462AB14369016800699847002302
:10702400A36010BD0EB403B5039921B104AB01AA4A
:10703400019300F075F802B05DF804EB03B07047FB
:107044000A2938B504460D4602D10D21FFF7F8FF91
:10705400A3682268591CA160D554D4E901329A422C
:1070640004D32046BDE83840FFF7D1BF38BD000047
:107074002DE9F84F9946DDE90A43174682468846CA
:107084000A460126BA420FD24E4538BF4E4613F087
:10709400010B01D164B900240125B9F1010F1AD9FA
:1070A40009F1FF397D43F8E7B2FBF7F20136E9E76E
:1070B4009B070ED5B9F1000F0CBF30252025A64241
:1070C400EAD2013C29465046FFF7BAFF002CF6D11C
:1070D400E1E72025F3E7B8FBF5F39F42E2D9DFF8B7
:1070E4003C90B8FBF5F3504619F8031005FB1388E0
:1070F400FFF7A6FFB5FBF7F3BD4207D2BBF1000FC4
:1071040002D00CB1A64203D3BDE8F88F1D46E8E7D0
:1071140020215046013CFFF793FFF2E7E49E020072
:107124002DE9F74F054617468846002900F03081BF
:1071340018F8011B49B92B7B002B00F02981284644
:1071440003B0BDE8F04FFFF762BF252940F0C080CF
:10715400002698F800302D2B424608F1010823D070
:10716400302B24D02B2B25D000242A2B02F1010113
:1071740023D13B681A1D1B683A601C440A461378E5
:107184002E2B26D101324FF00009104610F8011BB6
:10719400A1F1300CBCF1090F1DD80A2303FB09131C
:1071A400A3F130090246F0E746F00106D1E746F0C4
:1071B4000206CEE746F00406CBE711F8013CA3F142
:1071C40030000928DBD80A2202FB0434303C0A468A
:1071D400CBE74FF0000912F8011B01F0FB0068280F
:1071E4009046F8D069290ED04AD8582964D006D8D8
:1071F40025296DD098F80030002B99D19BE763299D
:1072040062D06429F6D13A68D2F800A0111D8AEA46
:10721400EA723960A2EBEA724FF0010B092A5BDCD7
:10722400CB4538BFCB462CB1BAF1000F01DB720756
:1072340000D5013CB30702D5B9F1000F04D0F00723
:1072440002D4002C4ED10024BAF1000F52DACAF154
:10725400000A2D212846FFF7F3FE06F00302022A56
:1072640005D1B9F1000F02D1002C47D10024CDE99A
:1072740000464B460A2251462846FFF7F9FEB9E775
:1072840073294CD014D87029B4D13B681A1D3A60C4
:10729400302128461C68FFF7D3FE78212846FFF7E3
:1072A400CFFE00220823CDE9003221461022E3E775
:1072B40075292BD078299DD139680A1D3A60CDE90A
:1072C40000464B46102228E03B681A1D19783A60A4
:1072D4002846FFF7B5FE8DE70A230BF1010BB2FB3D
:1072E400F3F29BE7A345AFD220212846013CFFF7E8
:1072F400A7FEA6E77107B0D52B21ABE7A345B6D20D
:1073040030212846013CFFF79BFEADE73968CDE903
:1073140000460A1D3A604B460A220968ACE73B68FE
:107324001A1D3A6016F00106D3F800A020D1BAF174
:10733400000F03D0504601F092FC0646B44200D937
:10734400C4B90AF1FF3A1EE028460136FFF778FE79
:107354001AF806100029F7D1A642BFF44BAF002C4F
:107364003FF448AF20212846013CFFF769FEF3E7CC
:107374000026EDE720212846013CFFF761FEDDE70A
:107384002846FFF75DFE1AF8011F0029F8D131E7FE
:1073940003B0BDE8F08F2DE9F047B0F806904479CA
:1073A400D2F800A09DF8208009FB04F4043C0646B2
:1073B4000AEB0300A0420F4688BFA4EB030A191D81
:1073C400C2F800A0B1FBF9F509FB15114DB9A9EB01
:1073D4000104544528BF5446BAF1000F04D1BDE856
:1073E400F0873668013DF1E704317B1970182246B5
:1073F400B8F1000F0ED001461846AAEB040A01F0BA
:1074040005FCD145254436684C464FF0000128BFA1
:107414005446E1E71946F0E7FFF7A4BDF8B546790D
:107424000146721E0546002393422D6803D30024AF
:10743400A64202D8F8BD0133F6E70F682846FFF7E5
:10744400CCFD01343946F3E72DE9F843068ACD1C17
:107454000746FFF79EFD043E35440446B5FBF6F5AA
:10746400F0B14FF48073EDB28380C680013D0760B4
:1074740081464FF00008A84512D23846FFF789FD2F
:10748400064648B163790133637108F10108C9F80C
:10749400000007608146EEE72046FFF7BFFF344651
:1074A4002046BDE8F88301210430FFF739BD10B54B
:1074B400012104460430FFF73EFD10F0FF0F04D114
:1074C4002046BDE81040FFF7A9BF10BD1FB50392C9
:1074D4000022009203AAFFF75EFF05B05DF804FBEB
:1074E4001FB503920122009203AAFFF754FF05B0CF
:1074F4005DF804FB836800225A609A60C3E90422A1
:10750400DA601A6070472DE9F04106460F4690464E
:107514001D468BB9B0687368D0E9031403F1010CFC
:107524000A1B62450FD10024C8F800401DB3FFF7C1
:1075340016FD0020BDE8F0818068FFF707FD0028F4
:10754400E8D01120F6E701EA030223409A4238BF4B
:107554006444D8F800302CBFACEB0204641A9C429B
:1075640028BF1C463368C8F8004013443B60C36816
:107574001C44C460DDE72846DCE782684368106980
:1075840010B50133946803441B1B8B420AD30C448B
:10759400C2E902441046FFF7DFFC002814BF0020B4
:1075A400082010BD0420FCE7806808B582680369E0
:1075B400D21A8A4207D30B44C0E904330430FFF7DC
:1075C400CEFC002008BD0420FCE70B684A68436039
:1075D400934208BF0023016008BF436070474368BB
:1075E40043B10268916852680B449342436004BFFC
:1075F40000234360704700001FB503788DF8003006
:107604004368019383688DF80830C3680393054A7F
:10761400054B684653F8213052F82110984705B0BD
:107624005DF804FBCC5D0020D45D00201FB5037819
:107634008DF800304368019383688DF80830C3687F
:107644000393054A054B684653F8213052F821103C
:10765400984705B05DF804FBCC5D0020D45D0020A4
:10766400F0B5184B0778DFF86CE043F82720164B89
:1076740016460A6943F827204B7F0EF807300C465C
:1076840084460FCC89B06D460FC594E80F0085E899
:107694000F001EF80730049753B1002E0B4A6946B9
:1076A40008BF32460CF1040000F044FB09B0F0BD01
:1076B400002E074A694608BF32460CF10C0000F060
:1076C4002BF9F3E7D45D0020CC5D0020FD750200AA
:1076D40031760200DC5D0020014B1B68184700BFB7
:1076E400E05D00200E4B984237B50D4602D00020D5
:1076F40003B030BD00230DF107008DF80730FFF70C
:107704009FFB084B1C7914B901221D601A719DF866
:107714000700FFF7B9FB002CE9D01120E8E700BF10
:1077240000200040E05D0020034B984201BF034B62
:1077340000221A601A71704700200040E05D0020AA
:107744000023435082B043580193019B02B0704719
:107754000A4610B54FF48E71FFF7F2FF136A916871
:10776400C95C136A01331362C0F81C1510BD8B6920
:107774000A4610B54FF4847123B9FFF7E1FFD0F83E
:10778400183510BDFFF7DCFF536AD168D0F818052F
:10779400C854536A01335362F3E700001FB5012351
:1077A4008DF80030044BCDE90110D3E9001268468E
:1077B400904705B05DF804FBE85D002030B54C4A05
:1077C400D2F8043313F4007F85B015464FD0D2F8B5
:1077D4002431002B4BD04FF492711046FFF7B0FFC9
:1077E4004FF40173C2F80833424B93F8291009B9D6
:1077F400012151603E4902228DF80020D1F88024F5
:10780400C1F8802403929A690292DA6801920022F4
:10781400C3E906226846D3E9001290473448D0F8F9
:107824001C315BB133490A6A4B699A420A464BD20E
:1078340091F82830002B47D1FFF78AFF2C4AD2F861
:10784400443193B14FF4A2711046FFF779FF294BED
:1078540093F8291009B1012111609A692AB1002213
:107864009A61586AD968FFF799FF05B030BDD5F819
:1078740004335B07D2D5D5F80831002BCED01D4C8C
:107884001B482146FFF773FF636AA2699A422346A5
:10789400C4D1E269E1684AB12369E3600023606A04
:1078A400A261E3616362FFF779FFB7E794F82920E7
:1078B4000AB901226A600E4A4FF40170C2F8080343
:1078C40000229A61586AEEE74FF48E710848FFF778
:1078D40037FF51690029B1D00023029191688DF8D6
:1078E4000030019153616846D2E900139847A5E737
:1078F40000200040E85D00201F2886BF00F01F0024
:10790400044B4FF0A04300F5E070022243F820201E
:10791400704700BF000300502DE9F843624F04791B
:1079240091462C2202FB0472064692F82A200D4648
:10793400002A40F0B3805D490068FFF7D3FE80461B
:10794400002840F0AE8029684A1C10D01F2987BF48
:1079540001F01F03564A0B464FF0A0420120984005
:1079640003F5E073C2F80805032042F823006868B1
:10797400431C0DD01F288BBF00F01F0303464C4A45
:107984004FF0A04203F5E0734FF0000C42F823C01F
:107994003368AA6995F814C0C3F824256A7DBCF13C
:1079A400010F4CEA0202C3F86C25C3F81405C3F8AE
:1079B4000C152BD1A968481C0DD01F298BBF01F0D1
:1079C4001F020A463A484FF0A04002F5E0724FF019
:1079D400000C40F822C0E868421C13D01F2887BF5F
:1079E40000F01F0C324A84464FF0A0424FF0010EC3
:1079F4000EFA0CFE0CF5E07CC2F808E54FF0030E1D
:107A040042F82CE0C3F80805C3F810152C2363438F
:107A1400FA18C2F804902A69FA50B9F1000F2AD072
:107A24004FF48E7130682D7FFFF78AFE30684FF473
:107A3400A271FFF785FE32681E4BC2F80433120BA5
:107A440051B20029A8BF01F160404FEA4513BABF03
:107A5400194802F00F0500F56140DBB2B4BF43558D
:107A640080F8003302F01F02012303FA02F24909ED
:107A7400124B43F8212033680422C3F800252C2339
:107A840003FB04730022C3E9062283F829205A6108
:107A9400012283F82A204046BDE8F8834FF0080805
:107AA400F9E74FF01108F6E7E85D0020C17702001E
:107AB400000300508000020014ED00E000E100E04B
:107AC4002DE9F04103680479254D0022C3F800250F
:107AD4002C2202FB04520646526872B1214AC3F8B2
:107AE4000823190B4AB20120520901F01F0100FAC0
:107AF40001F120321C4840F82210D3F80C05D3F8C9
:107B04001485D3F80815D3F810754FF0FF3290425E
:107B1400C3F81425C3F80C25C3F80825C3F81025A9
:107B240001D0FFF7E9FEB8F1FF3F02D04046FFF76E
:107B3400E3FE7A1C02D03846FFF7DEFE4B1C02D06F
:107B44000846FFF7D9FE3068FFF7EEFD2C2303FB50
:107B54000454002384F82A306360BDE8F08100BF38
:107B6400E85D00208402020000E100E02DE9F04716
:107B7400214F06794FF02C0909FB0674804665698C
:107B8400002D37D16261A16025624FF48E710068C7
:107B940084F82850FFF7D4FDD8F80000012383604F
:107BA4002146FFF7D5FD6368A14693B9D8F800A034
:107BB400226A63699A4212D3D8F80030D3F81C21A0
:107BC400002AFBD00122DA602C2303FB0676002373
:107BD40073612846BDE8F08794F8283043B9DAF891
:107BE4001C31002BF8D049465046FFF7B1FDDFE7C2
:107BF4000F25E9E71125ECE7E85D00200023435059
:107C040082B043580193019B02B070471FB5012312
:107C14008DF80030044BCDE90110D3E90012684619
:107C2400904705B05DF804FB145E00207FB5374A29
:107C3400D2F82461002E48D010464FF49271FFF719
:107C4400DDFF02238DF80030D2F88034C2F880348E
:107C54000393D2F83C3502932D4BDA68019200224B
:107C6400C3E906226846D3E900129047274AD2F8AE
:107C740044317BB14FF4A2711046FFF7BFFF244B90
:107C8400996939B10021C3E90611D968D2F83C05D4
:107C9400FFF7BCFF1D4AD2F82031A3B14FF4907115
:107CA4001046FFF7ABFF1A4B596961B1D2F84C1576
:107CB4000291002299688DF8002001915A6168466A
:107CC400D3E90012904704B070BDD2F81031002BF4
:107CD400CCD04FF488711046FFF790FF0C4BD2F8CC
:107CE4003C0599698842C1D1DC69D96864B1D2F88C
:107CF400005225F02005C2F800521A699C61DA602E
:107D0400DE61FFF783FFB1E79C61FAE700200040E2
:107D1400145E00201F2886BF00F01F00044B4FF0A4
:107D2400A04300F5E070022243F82020704700BF12
:107D3400000300502DE9F843664F0679914624224A
:107D440002FB0672044692F820200D46002A40F0F9
:107D5400BB8061490068FFF7C5FC8046002840F0FD
:107D6400B6802868421C10D01F2887BF00F01F036C
:107D74005A4A03464FF0A0420121994003F5E073AB
:107D8400C2F80815032142F8231069684B1C0DD072
:107D94001F298BBF01F01F030B46504A4FF0A0422E
:107DA40003F5E0734FF0000C42F823C02368AA697E
:107DB40095F814C0C3F824256A7DBCF1010F4CEA80
:107DC4000202C3F86C25C3F80C05C3F814152BD1B3
:107DD400A968481C0DD01F298BBF01F01F020A4659
:107DE4003E484FF0A04002F5E0724FF0000C40F81E
:107DF40022C0E868421C13D01F2887BF00F01F0C64
:107E0400364A84464FF0A0424FF0010E0EFA0CFEA3
:107E14000CF5E07CC2F808E54FF0030E42F82CE0C4
:107E2400C3F80805C3F8101524237343FA18C2F8DD
:107E340004902A69FA50B9F1000F34D04FF48871D4
:107E440020682D7FFFF7DAFE4FF490712068FFF76A
:107E5400D5FE4FF492712068FFF7D0FE20684FF4EE
:107E6400A271FFF7CBFE22681D4BC2F80433120B3C
:107E740051B20029A8BF01F160404FEA4513BABFCF
:107E8400184802F00F0500F56140DBB2B4BF43555A
:107E940080F8003302F01F02012303FA02F24909B9
:107EA400114B43F8212023680822C3F8002524231A
:107EB40003FB06730022C3E906225A61012283F8F8
:107EC40020204046BDE8F8834FF00808F9E74FF05A
:107ED4001108F6E7145E0020317C02000003005014
:107EE4001003020014ED00E000E100E02DE9F04190
:107EF40003680479254D0022C3F80025242202FBDF
:107F040004520646526872B1214AC3F80823190B79
:107F14004AB20120520901F01F0100FA01F1203296
:107F24001C4840F82210D3F80C05D3F81485D3F874
:107F34000815D3F810754FF0FF329042C3F80C25A2
:107F4400C3F81425C3F80825C3F8102501D0FFF79A
:107F5400E1FEB8F1FF3F02D04046FFF7DBFE7A1C9A
:107F640002D03846FFF7D6FE4B1C02D00846FFF776
:107F7400D1FE3068FFF7D8FB242303FB045400230D
:107F840084F820306360BDE8F08100BF145E0020F7
:107F94001003020000E100E001F06043B3F1005F70
:107FA4002DE9F041074632D11B4B0679242505FB08
:107FB400063598466C6964BB6A61A96000684FF431
:107FC4009071FFF71BFE4FF4AC713868FFF716FE93
:107FD4003B686A69A968C3F84415C3F848250122B7
:107FE4009A606A6862B9D3F82021D3F8584152B92B
:107FF400002CF8D00F24242303FB0686002373618E
:108004002046BDE8F081002C18BF0F24F3E71024AC
:10801400F6E71124F4E700BF145E0020044B9A68CD
:10802400F1EE103A136C23F09F031364704700BF02
:1080340030EF00E02DE9F04F2DED068B002185B0E7
:10804400084600AFFEF75AFB08B1FEF7B3FEFEF791
:108054008BFA764C764B7749DFF818A2DFF808B232
:10806400E41AE408240444F0030044F00504FEF791
:1080740039FD71492046FEF735FD704BE02283F847
:1080840026234022C3F8842100255A6000F0AEFD67
:108094006B4AB0FBF2F303FB120007EE900A9FED6C
:1080A400697A9FED699A694E9FED69AADFED699A35
:1080B400F8EEE77A85F0010587EE878A4FF000092C
:1080C4004FF06408F0EE478A28EE099A4FEA590304
:1080D40007EE903AF8EEE77A67EE897AC7EE8A7A85
:1080E40017EE900A00F004FC41EC100B00F046FC83
:1080F40051EC100B00F016FC46F8040C8DB100F0A6
:1081040075FD90FBF8F303FB180007EE900AF8EEF8
:10811400E77A87EEA87A56ED017A67EE877A46ED1C
:10812400017A19EE903A09F10209B9F1800F46F883
:10813400083BCBD1012300225146474801F058F9AE
:1081440040225946504601F0CDF9BCEEC88A434A54
:10815400434B4449002D08BF134618EE102A20460D
:1081640092B2FEF7CCFCE94607F10C0392B007F19A
:1081740008024021584600F0A3FD0DF13F03E846F4
:108184001426B3EE048A7B60013E07EE906AB8EED3
:10819400E77A354AC7EE087A08F1FF3397ED027A99
:1081A40067EE877AB2EC017AF4EEC77AF1EE10FA50
:1081B4004CBF7C21202103F8011F79688B42F1D147
:1081C400002388F840304046FEF7E8FA2749024683
:1081D4002046FEF78BFCFEF71BFB0028FBD1002E8C
:1081E400D2D192B068460DF1FF330DF13F022D213B
:1081F40003F8011F9342FBD1002380F84030FEF7BF
:10820400CDFA1A4902462046FEF770FCCD46FEF729
:10821400FFFA0028FBD1164B4FF47A7643F001089D
:108224004FF47A40C047013EFAD12FE7649D020023
:108234004C9D0200169F02002F9F020000E100E007
:1082440080841E000000C842DB0FC9403C5E002051
:1082540000442C470000000000A20200719F0200AD
:108264006D9F0200749F0200386000205A9E020035
:10827400109F0200385E0020054B1B68082B01BFCD
:10828400044B1868B0FA80F0400918BF002070470A
:10829400300100103401001008B54FF08043002273
:1082A400C3F80C21C3F81021C3F838254FF08052CD
:1082B40003F54043D2F80414C3F82015D2F8081487
:1082C400C3F82415D2F80C14C3F82815D2F81014E6
:1082D400C3F82C15D2F81414C3F83015D2F81814B6
:1082E400C3F83415D2F81C14C3F84015D2F820147E
:1082F400C3F84415D2F82414C3F84815D2F8281446
:10830400C3F84C15D2F82C14C3F85015D2F8301415
:10831400C3F85415D2F83414C3F86015D2F83814DD
:10832400C3F86415D2F83C14C3F86815D2F84014A5
:10833400C3F86C15D2F84424C3F87025FFF79CFFEA
:1083440010B1384B384A1A60FFF796FF18B1374B13
:10835400FB22C3F81825FFF78FFF48B13449354B8A
:108364000A681B6822F00F0203F00F0313430B602B
:10837400FFF782FF18B1304B4FF400721A604FF0D0
:108384008043D3F80024D20744BF6FF00102C3F83E
:1083940000242A4AD2F8883043F47003C2F88830A3
:1083A400BFF34F8FBFF36F8F4FF01023D3F800222A
:1083B400002A03DBD3F80432002B2FDA204B0122EE
:1083C400C3F80425D3F80024002AFBD04FF0102270
:1083D4001221C2F80012D3F80024002AFBD04FF077
:1083E40010231222C3F80422154B1A46D3F80014A2
:1083F4000029FBD00021C3F80415D2F80034002B67
:10840400FBD0BFF34F8F0D490E4BCA6802F4E062F4
:108414001343CB60BFF34F8F00BFFDE70A4B0B4AFA
:108424001A6008BD8C5600404881030000F00040EB
:10843400E40E0040580200104096024000ED00E0B7
:1084440000E001400400FA05D45700200090D00356
:1084540007B508496846FFF7B8F8019B13B903B09C
:108464005DF804FBD3E9002090476846FFF7B7F8AE
:10847400F3E700BF949F0200FFF7EABF4BDF7047AA
:108484001FB50D4C01A8FFF7F9FF70B9214602A8EA
:10849400FFF79BF8039B002BF4D00198D3E900214C
:1084A400904702A8FFF79BF8F4E7052801D0FEF7F0
:1084B40081FC04B010BD00BFA89F020030B591EA52
:1084C400030F00F18480841A71EB030C05D2121996
:1084D40053EB0C03001B71EB0C0140F2000CCFF6C4
:1084E400E07C1CEA430F54D0BCEB410F61D90C0D66
:1084F400A4EB135E31EA0C0141F4801133EA0C035E
:1085040043F48013DEF1200C2AD303FA0CF540194E
:1085140041F1000122FA0EF5401923FA0EF56941E2
:1085240012FA0CF2CD0208D349085FEA30005FEA80
:10853400320228BF42F001020134013C5FEA500CD0
:1085440072F1004250F1000051EB04514FF400135A
:1085540013EB410F38BF30BD090D0905002030BDB4
:10856400BEF1200EBEF1200F1ED223FA0EF54019E3
:1085740041F10001CEF1200C124218BF012203FA8E
:108584000CF52A43CEE711EA5C0F04BF002000215A
:1085940030BD1CEA410F04BF01F00041002030BD92
:1085A40001F00041002030BD21F4801101EB0451A1
:1085B40030BD004218BF41F00101BCEB410F08BFC0
:1085C40030BD4FF0FE4141F47801002030BD83F00E
:1085D4000043841A71EB030E07D28EF0004E001B89
:1085E40071EB0E01121953EB0E0340F2000CCFF69F
:1085F400E07C1CEA430FC6D0BCEB410F72D90C0DD2
:10860400A4EB135EC90241EA5051C00241F000419B
:10861400DB0243EA5253D20243F00043DEF1200C62
:1086240041D312FA0CF522FA0EF203FA0CF542EADF
:10863400050218BF42F0010223FA0EF3801A994191
:10864400E30AC4F30A0411F0404F03D418D0013CE8
:1086540040004941013C23D44205C00A40EA41504C
:10866400C90A51EAC3715FEA500C72F1004250F139
:10867400000051EB045130BD01002FD00020203CFC
:108684000029F9D0B1FA81FCDCF1200E11FA0CF1C9
:1086940030FA0EF510FA0CF02943A4EB0C04D9E7D8
:1086A4000020D90730BDAEF1200EBEF1200F0DD24F
:1086B400CEF1200C03FA0CF533FA0EF32A4318BF5B
:1086C40043F00103C01A61F10001B9E721F0004150
:1086D400C00A40EA4150C90A01EB045130BD0020F0
:1086E400002130BD004218BF41F00101BCEB410F35
:1086F4007FF467AFBCEB430F3FF463AF30BD00BF03
:1087040083F00043FFF7DABEF0B540F2FF7681EA6A
:10871400030C16EA115E1EBFB64516EA1355B542A0
:108724005AD021EA465141F48011A1FB024723EAC1
:10873400465343F48013AE44A0FB03650CF0004C95
:1087440036197D41A1FB034747F10003A0FB021743
:10875400F619654153F10003094218BF46F00106BA
:1087640040F2FE74B3F5007F13D2AEF5806EA645D9
:108774002BD24CEA0331280341EA155140EA165042
:108784003203450872F1004250F1000051EB0E51E2
:10879400F0BDAEF2FF3EA64517D24CEAC321E80273
:1087A40041EA555140EA5650F202450872F100423E
:1087B40050F1000051EB0E51F0BD0CF0004141F0BE
:1087C400FE4141F470010020F0BD1EEA0E0FF4D505
:1087D4000CF000410020F0BD16EA115F04BF01F067
:1087E40000410020004218BF41F0010116EA135F66
:1087F40004BF03F000430022124218BF43F00103F8
:1088040006EA1354B44218BF9EEA060F03D00CF0D4
:1088140000410020F0BD21F0004123F00043B1EB02
:10882400065F06D8B3EB065F03D8002918BF002BF8
:10883400C3D140F20001C7F6F8710020F0BD00BFBB
:108844004FF4001C1CEB410F98BF1CEB430F11D8D5
:1088540051EA030C50EA4C0C5CEA020C0AD004D234
:1088640082428B418041404270479042994180410D
:1088740040427047002070474FF4001C1CEB410F2E
:1088840098BF1CEB430F11D851EA030C50EA4C0C6F
:108894005CEA020C0AD004D29042994180414042E1
:1088A400704782428B4180414042704700207047AC
:1088B4000B0D40F21E42D21A07DBCB0243EA5050A2
:1088C40040F0004030FA02F07047490060EB0000CD
:1088D400704700BF50B140F21D42B0FA80F18840A9
:1088E400521AC30A400503EB025170470100704756
:1088F400C0F3C75191B142004FEA40704FEAD20130
:108904004FEA310101F16051B2F17F4F38BF704736
:1089140001F1605118BF41F40021704710F000418B
:108924000020704701F000428B1AA3F16051B1F5A9
:10893400801F0ADBB1F17F6F09D242EAC102C10094
:1089440071F1004142EB50707047104670470128A6
:108954005B4113F5001F04D842F0FE4040F40000D0
:108964007047C90041EA507040EA020040F48000B8
:1089740040F08040704700BF000000002DE9F04146
:1089840057EC106B0024002522462B46394610EE86
:10899400100AFFF771FF27F0004510F1000860A3EB
:1089A400D3E900233046294618BF4FF00108344666
:1089B400FFF746FF60B35CA3D3E9002330462946A2
:1089C400FFF7A2FE0022554BFFF778FDFFF770FF7B
:1089D40000F0010383EA0808FFF77CFF3BA3D3E917
:1089E400002306460F46FFF78FFE22462B46FFF76D
:1089F40065FD38A3D3E9002304460D4630463946C5
:108A0400FFF782FE22462B46FFF758FD04460D462B
:108A140022462B4620462946FFF776FE2FA3D3E9AC
:108A2400002306460F46FFF76FFE2EA3D3E900236B
:108A3400FFF766FE32463B46FFF766FE2BA3D3E9FB
:108A44000023FFF73BFD32463B46FFF75DFE29A3BB
:108A5400D3E90023FFF754FE32463B46FFF754FEAA
:108A640026A3D3E90023FFF729FD32463B46FFF74F
:108A74004BFE24A3D3E90023FFF742FE32463B46D4
:108A8400FFF742FE21A3D3E90023FFF717FD324687
:108A94003B46FFF739FE1FA3D3E90023FFF730FE5F
:108AA40032463B46FFF730FE22462B46FFF72CFEAC
:108AB40022462B46FFF702FDB8F1000F02D001F168
:108AC4000043194641EC100BBDE8F08100000000A2
:108AD400002209C09EE59E4BEFAEE23E95DF93690E
:108AE400FF80E83C9C4908DC20E46A3D30D46A6895
:108AF4003C12E63DABC05D4B45E65A3E63F024A50F
:108B0400E31DC73E1A3E011AA0012A3FB0101111FD
:108B14001111813F555555555555C53F0000E03F4E
:108B24004AD8124DFB21F93F83C8C96D305FD43F49
:108B34007F2805D8034B185C034B5B5C18407047D7
:108B440000207047C09F020040A00200A0F1610312
:108B5400192B98BF20387047A0F14103192B98BFF7
:108B6400203070477F2805D8034B185C034B5B5CAF
:108B74001840704700207047C09F020040A00200C8
:108B8400A0F16103192B98BF20387047A0F141036D
:108B9400192B98BF203070477F299ABF017001209C
:108BA4006FF02E0070475AB10A787F2A0AD800B1B4
:108BB4000260002119605960501A18BF01207047E3
:108BC400002070476FF02E007047000008B5034B7B
:108BD4005B689B681B68984708BD00BFD857002096
:108BE40008B50921FFF7F2FF08BD0000054B18681E
:108BF400054943F2390201FB00201860C0F30E401E
:108C0400704700BFEC5700206D4EC641844640EAD1
:108C1400010313F0030F18D18446202A0BD32DE946
:108C2400F007B1E8F807A0E8F807A2F12002202A2B
:108C3400F7D2BDE8F007042A07D351F8043B40F803
:108C4400043BA2F10402042AF7D2002A05D011F849
:108C5400013B00F8013B013AF9D16046704700F14D
:108C6400010110F0030F11D010F8012B002A23D0BA
:108C740010F0030F0AD010F8012B002A1CD010F0BA
:108C8400030F03D010F8012B002A15D02DE9700032
:108C94004FF001324FF0803350F8044BA4EB02053F
:108CA40025EA04051D4000D1F6E7A0F1040070BCDC
:108CB40010F8012B002AFBD1A0EB01007047000043
:108CC4002DE9F0414F1E5FEA970800F1040ED0ED44
:108CD400007A58D01430C4460426002410ED046AE7
:108CE40050ED036A10ED027A50ED015AB4EEE76AD2
:108CF400F1EE10FAC8BFF0EE467AA6F10305F4EEE1
:108D0400E67AC8BF2C46F1EE10FA48BFF0EE667A58
:108D1400A6F10205F4EEC77A48BF2C46F1EE10FA2C
:108D240048BFF0EE477A06F1FF35F4EEE57A48BF26
:108D34002C46F1EE10FA48BF344648BFF0EE657A8F
:108D4400BCF1010C06F1040600F11000C6D10EEBD3
:108D5400081E17F0030018D0081ABEEC017AB4EE0E
:108D6400E77AF1EE10FAC8BF044600F10100D8BF5B
:108D7400B0EE677A8842F0EE477AEED182ED007A5F
:108D84001C60BDE8F0814446E3E7B0EE677AF5E79E
:108D94002DE9F0412DED088BB0F800E042684FEA70
:108DA4005E0C01EB8E085FEADE0E07464FEA8C0389
:108DB40000F0AF801033CE181032434401F1100597
:108DC40008F1100454ED041A13ED044A53ED033A68
:108DD40053ED025A13ED015A54ED036A14ED020ADD
:108DE40016ED042A56ED032A15ED036A15ED017AF2
:108DF40015ED043A54ED017A56ED020A16ED011A06
:108E040055ED024A73EE21BA36EE26BA37EE27AA9A
:108E140072EE049A32EEA39A31EE058A74EE80AAB9
:108E240070EEA58A45ED04BA05ED03BA45ED02AA34
:108E340005ED01AA06ED018A46ED049A06ED039AB2
:108E440046ED028A76EE666A73EEE23A12ED036A42
:108E540052ED042A33EE613A34EE424A26EE868A13
:108E640024EE062A63EE221A24EE224A23EE063A60
:108E740066EEA26A23EE866A63EEA23A36EE046ACE
:108E840076EEC36A72EE633A71EE882A44ED036AA1
:108E940044ED042A43ED043A03ED036A77EE677A5E
:108EA40075EEE06A12ED017A52ED025A35EE416A2E
:108EB40074EEC04A67EE873A26EE875A24EEA54A36
:108EC40067EEA57A64EE874A66EEA56A26EE077A0F
:108ED40026EE256A77EEE47A74EE235A35EE466A76
:108EE40037EE267ABEF1010E44ED025A05F1100563
:108EF40044ED017A06F1100603ED026A03ED017AEE
:108F040002F1100204F1100403F110037FF45AAFCC
:108F14007A681FFA8CF408460223214600F02AFCE2
:108F2400BDEC088B404621467A680223BDE8F04137
:108F340000F020BC2DE9F04F2DED0A8B028891ED55
:108F4400006A8FB00F46520893000C900391416859
:108F540097ED017A38461844064609901844D0ED36
:108F6400006AD6ED003AD6ED012AD0ED017A0A90D6
:108F740076EE265A044625461C4494ED004A94EDA8
:108F8400015A019475EEA34A304674EE244A3E46D3
:108F940014EE90EA76EE666A46F808EB37EE276A36
:108FA400D0ED014A049677EE677A019E32EEA63A36
:108FB40096ED012A36EE247A75EEE35A77EEE34A0B
:108FC40036EE626A77EEA37A76EEE26A73EE453A9B
:108FD400044636EE456A75EE266AA34637EE027AF3
:108FE40034EE845A13EE908AA44675EEC45A87ED83
:108FF400017A4BF8088BACF104078CED015A01F1AE
:10900400080C2C46CDF814C015EE90CA44F808CBD1
:10901400079401F1100485ED016A520802942C466C
:1090240001F118050B92B246069577EEC47A023A1E
:1090340016EE905AB646304652084AF8085BA0F13C
:109044000406CEED017A089200F030819146039A2D
:10905400DDF80880CDF834A0083B02F1100501F1D9
:10906400200CA4F10C0201F1300E334410345046AC
:10907400594655ED023A14ED025A91ED007AD0EDBD
:10908400007A15ED014A54ED015AD0ED016A91EDD3
:10909400016A33EE858A34EE250A78EE074A74EEC7
:1090A400655A77EEA44A33EEC55A45ED024AD1ED2E
:1090B400014A90ED014A70EE244A76EE05AA74EE58
:1090C400844A35EEC7AA45ED014AD6ED001AD7ED1C
:1090D400000A92ED024AD3ED023A93ED012A16ED0D
:1090E400011AD2ED012A57ED019A70EEA14A39EE28
:1090F400813A74EE848A70EEE11A73EEA88A7AEEED
:10910400E6AA18EE90AA47F808A9D2ED018A93EDD1
:10911400019A73EE288A3AEE27AA78EE898A74EEC9
:10912400630AC7ED018A18ED02BA58ED018A39EED7
:10913400C11A6AEE28BA2AEE8BCA71EEE29A30EEB0
:10914400819A79EE829A3CEE2BCA6AEEA8AA69EE5D
:10915400A8BA2AEE0BAA69EE8B9A69EE288A29EE40
:109164000BBA1CEE10AA78EEA98A41F808AB3AEEC5
:109174006AAA3BEECBBA34EEC44A33EE623A01ED4E
:1091840001AAC2ED018A82ED02BA5CED044A74EED2
:10919400633A38EE478A1CED034A30EE460A33EE52
:1091A400423A38EE678A30EE660A23EEE49A63EEBA
:1091B400048A28EE24AA60EE049A28EE048A20EE9B
:1091C400240A63EE843A39EE684A7AEE299A14EE58
:1091D40010AA30EE480A63EE244A44ED029A73EE74
:1091E400E43A04ED010A46F808A935EE466A35EE7C
:1091F400877AC6ED013A76EE866A77EE677A1EEDD7
:10920400056A1EED067A67EE865A26EE875A72EED6
:10921400622A30EEC11A72EEE12A75EE255A62EE28
:10922400860A66EE866A67EE877A21EE066A62EE41
:10923400872A21EE071A15EE90AA77EEE67A40F80F
:1092440008AB30EEC11A76EE222AB9F1010940EDDD
:10925400017A05F1080583ED021AC3ED012A08F12C
:109264000808A2F108020CF1100C04F108040EF134
:10927400180EA3F108037FF4FCAE08990298DDF8F8
:1092840034A0CB0001EB410200EB011102910499DF
:109294001944049105991944059107999B4419446B
:1092A4009A44069B079103EBC2030693049A07981A
:1092B400D2ED003A90ED004ADBED007A9AED003AE7
:1092C400D2ED014A90ED017A9BED012ADAED015AC3
:1092D400BDF82C400C9E73EE846A34EE876A36EE39
:1092E400A75A34EEC77A33EE055A33EEC44A82EDF8
:1092F400005A9BED015ADAED014A36EE055A72EE38
:10930400043A35EE245A77EE674A82ED015A059AFB
:1093140034EE835AD2ED001AD2ED012A029A73EE8A
:10932400E53A36EE426A63EEA14A63EEA23A65EE8E
:10933400222A25EE215A74EEA22A35EE635A76EEDD
:10934400E76ACBED002A8BED015AD2ED013A92ED9A
:10935400005A069A76EEC36A36EE656A66EE854A68
:1093640026EE055A66EEA36A26EE236A75EE666A51
:1093740034EE866A34EE424A37EE277AC0ED016A4B
:1093840080ED006A92ED016A039877EE437A75EEF8
:10939400845A92ED007A65EE876A27EE877A65EE45
:1093A400865A67EE867A77EE655A76EEA77ACAED24
:1093B400015ACAED007A72682146042300F0DAF9F2
:1093C400099872682146042300F0D4F90A98726857
:1093D4002146042300F0CEF9019872682146042343
:1093E4000FB0BDEC0A8BBDE8F04F00F0C3B900BF6D
:1093F4002DE9F041012A064617460C469846058891
:1094040054D0B5F5807F4CD016D9B5F5806F1AD0FD
:109414005CD9B5F5006F44D0B5F5805F05D1204621
:1094240029467268012300F0A5F9B8F1000F11D1A3
:10943400012F16D0BDE8F081202D32D04AD9402D1D
:10944400EDD0802DF1D130462146FFF7A1FCB8F1D3
:10945400000FEDD02046B189B26800F02BF9012F3E
:10946400E8D107EE905AF8EE676AF7EE007AC7EE95
:10947400A66A002DDED004F10801002301339D42C9
:1094840001F1080111ED047A51ED037A27EE267AF1
:1094940067EEE67A01ED047A41ED037AEED1BDE898
:1094A400F08130462146FFF745FDBEE7ADB101F13D
:1094B4000C03002253ED027A0132F1EE677A9542F1
:1094C40043ED027A03F10803F4D19AE7B5F5007F7E
:1094D400A5D0AAE7102DB6D0A7E7B5F5807F94D81C
:1094E400AAE700BF2DE9F0415FEA920884B07FD07B
:1094F400002700F1200401F1100546465AE0B1EEC0
:10950400E70AB4EE400AF1EE10FA40F0A48005ED4B
:10951400040A54ED067A14ED050A67EEA77A20EEE4
:10952400000A77EE807AF5EEC07AF1EE10FAC0F216
:109534008F80B1EEE70AB4EE400AF1EE10FA40F083
:10954400AF8005ED030A54ED047A14ED030A67EEC7
:10955400A77A20EE000A77EE807AF5EEC07AF1EE73
:1095640010FA72DBB1EEE70AB4EE400AF1EE10FA3B
:1095740040F08C8005ED020A54ED027A14ED010AE4
:1095840067EEA77A20EE000A77EE807AF5EEC07ACD
:10959400F1EE10FA20DBB1EEE70AB4EE400AF1EE88
:1095A40010FA69D1013E05ED010A04F1200405F128
:1095B400100519D054ED087A14ED070A67EEA77A5E
:1095C40020EE000A77EE807AF5EEC07AF1EE10FA1A
:1095D40095DA45F8107C9CE7013E45F8047C04F1DB
:1095E400200405F11005E5D100EB481001EB08114A
:1095F40012F0030526D0002600F108040CE0B1EEB9
:10960400E70AB4EE400AF1EE10FA2ED1013D01ED65
:10961400010A04F1080415D054ED027A14ED010A8C
:1096240067EEA77A20EE000A043177EE807AF5EE31
:10963400C07AF1EE10FAE2DA013D41F8046C04F16B
:109644000804E9D104B0BDE8F08145F8087C93E74B
:1096540045F80C7C77E7B0EE670A0392029101901B
:1096640000F06AFB01A807C851E7B0EE670A019150
:1096740000F062FB0199C9E7B0EE670A0392029118
:10968400019000F059FB01A807C88BE7B0EE670A08
:1096940003920291019000F04FFB01A807C869E70B
:1096A400B0EE670A03920291019000F045FB01A815
:1096B40007C846E74B1C012B98BF70472DE9F00300
:1096C400911C9B08B1F80480B1F802900A8831F823
:1096D40002CC8044814402448444D9F80070D8F810
:1096E40000601568DCF80040C9F80060C8F8007034
:1096F400CCF800501460D9F80470D8F804605568A8
:10970400DCF80440C9F80460C8F80470CCF80450CC
:1097140054600831013BD5D1BDE8F00370474B1CC0
:10972400012B98BF70472DE9F003911C9B08B1F8F9
:109734000480B1F802900A8831F802CC00EB580892
:1097440000EB590900EB520200EB5C0CD9F80070F5
:10975400D8F800601568DCF80040C9F80060C8F863
:109764000070CCF8005014600831013BDFD1BDE833
:10977400F00370472DE9F04F2DED108B9DB01C4682
:109784009FEDC8BA1A92031D824689468B461B93E5
:1097940000949E464FEADB035A00D618F51803924C
:1097A4005A19D018DF0019183C46019757440C93F6
:1097B4000AEBC2021B010AEBC10107EB040C009C7B
:1097C40002930AEBC6060AEBC505043204310AEB20
:1097D400C0004FEACB034FF00008DCED007AD7ED70
:1097E400006AD6ED003A5EED01AAD5ED004A90ED8F
:1097F400002A12ED017A51ED010A77EE828A33EEE6
:10980400A04A76EE871A3AEEA43A31EE846A33EE31
:10981400285A36EEC77A75EE066A35EE465A4EED8C
:10982400016A85ED005A96ED011AD7ED015A92EDC1
:1098340000AA91ED006A9EED009A95ED015ADCEDC7
:10984400016AD0ED019A73EEE00A71EE462A75EED4
:10985400CA3A37EE600A33EEA28A37EE207A73EE04
:10986400E22A37EEC22A79EE053A60EE0B0A39EEA7
:10987400455A7AEEE44A36EEA99A75EE8A5A31EEE2
:10988400066A76EEE96A28EE0B8A62EE8B2A67EEA8
:109894000B7A33EE683A36EE880A75EE868A36EE2F
:1098A400C87A71EEC41A75EE626A33EEC94A35EEAF
:1098B400C66A33EE891A74EEE05A74EEA03A75EE75
:1098C400224A32EE275A72EE677A33EE068A75EE32
:1098D400872A31EE289A33EE466A74EE610A33EE33
:1098E400802A35EEC77A34EEC53A76EEE75A31EE81
:1098F400681A34EE214A73EEC03A74EE854A76EE65
:10990400A76AD844C1458EED009A85ED011A9E449C
:109914008CED008A1D4480ED006ACCED010A80EDD7
:10992400014A9C4487ED002A184441ED013A42ED76
:10993400012A86ED007A87ED013AC1ED004A1F4401
:10994400C2ED005A1944C6ED016A1A441E443FF69A
:1099540044AF0C990729204640F2E98104EB4407FF
:109964003E193519039C00902246013202EB810214
:109974000099281800EB010E0C990A4404EB010C21
:109984004FEACE040AEBC20E009A0F94ED00119533
:10999400D5000D95019D08351695029D08351401D5
:1099A40017950F9A1A9D0E94C0001090AA1807924A
:1099B400109A0C9CAA180892119AAA18099201EB01
:1099C40081010EF104020A92C9000D9A0C31F600CD
:1099D4004FEACC001491A9180E9A1296FF00AE1902
:1099E40008304FEA0C1C06961990AA186401EE1967
:1099F4000CF10C001397049615900391059204F151
:109A0400080218924FF00108002202F108010F46E3
:109A14000B9118998E1816998D1817998C181999F5
:109A24008818149901EB020C15990A440399D1ED95
:109A340000FA059991ED00FA0499D1ED00EA06992E
:109A440091ED00EA0999D1ED00DA089991ED00DA77
:109A54000799D1ED00CA039991ED01CA0599D1ED99
:109A640001BA0499D1ED01AA069991ED01AA0999C7
:109A7400D1ED017A0899CDED007AD1ED017A0799FB
:109A8400CDED017AD1ED017A0AEB070E0A9FCDEDF7
:109A9400027A0CEB0A01564455445444504452444F
:109AA400C44601E0F304353F96ED005A52ED019AA5
:109AB40011ED016AD0ED007A17ED017ADEED003A7E
:109AC40094ED003A95ED002A9EED010A33EE858A65
:109AD40032EE061A33EE294A77EE874A78EE041AF4
:109AE40071EE246A32EE462A31EEA66A77EEC77A20
:109AF4008EED006AD0ED018A95ED019AD1ED002A30
:109B040097ED007AD4ED010A96ED016AD2ED005A80
:109B140073EEC53A33EE693A39EE625A78EEC79A73
:109B240038EE444A38EE877A30EEA58A79EE222A56
:109B340075EE698A32EE279A35EE295A72EE677A03
:109B440030EE062A69EE0B9A70EEE55A32EE089A68
:109B540068EE8B8A32EE482A71EE644A25EE0B5A7F
:109B640032EE871A67EE8B7A72EEC72A30EE466AB7
:109B740073EE290A36EE280A33EE693A32EE647A35
:109B840073EEA79A36EE686A73EEE77A75EE858A05
:109B940074EE223A35EEC55A71EEE66A79EE411A50
:109BA40039EEA88A76EE435A74EE622A72EE244A9B
:109BB40030EE604A79EEE88A30EE200A77EE859A34
:109BC40036EE036A77EEC57A2EEE212A2EEE265A59
:109BD4006FEE230A2AEE213A39EE011A6AEE266A5A
:109BE4002BEE879A6BEEA33A2FEE077A6FEE841A68
:109BF40035EE033A72EE666A2CEE045A2FEE882A8A
:109C04009DED024A8EED011A77EE633A2CEE088A36
:109C14009DED017A86ED003A30EE899A32EE052AFE
:109C24006DEE220A31EEC88A67EE222A64EE001A2B
:109C340027EE247A2CEEA85A6DEE244A64EE288A84
:109C44009DED004AC6ED016A74EEE22A6DEEA94A62
:109C540064EE299A24EE254A30EE877A74EE844A1B
:109C64006EEEA70A2AEE864A2CEE800A6DEEA55AFD
:109C74006AEEA77A2EEE866A75EE211A30EE680A2D
:109C840075EEE99A70EE840A36EE676ADC44E145C3
:109C940084ED009AC4ED013A9E4402ED017AC2EDCE
:109CA400002A1E4485ED002A85ED018A1C4447EDF7
:109CB400011A87ED000A1A4441ED014AC1ED009AE8
:109CC4001D44C0ED000A1F4480ED016A1944184484
:109CD4003FF6EAAE039A0D990A4403920E99059A47
:109CE4000A4405921399049A0A4404921299069A12
:109CF4000A4406921199099A0A4409921099089AF9
:109D04000A4408920F99079A0A4407920C990A9AEE
:109D140008F10108083288450A920B9A7FF475AE5F
:109D2400BDF834300093C346DDF86CE032E51DB075
:0E9D3400BDEC108BBDE8F08FB1EEC00A704799
:089D440085840200000000000C
:109D4C00F49E020000000000F89E020000000000DB
:109D5C00FD9E020000000000FD9D020000000303B8
:109D6C00A09F020000000303B49F02000000030345
:109D7C00C09D020000000000CC9D0200CC570020CA
:109D8C0034580020FC580020045900203C58002076
:049D9C0018000000AB
:109DA000FFFFFFFFFFFFFFFFFFFFFFFFFFFFFFFFC3
:109DB00000000000000000000000D60106010000C5
:109DC000996402003D650200956402007561727439
:109DD0005F6C6F675F6261636B656E6400000000BB
:109DE000285D00207F000000A85D00204261636BB9
:109DF000656E647320666C7573686564006170706D
:109E000000000000379E0200809E02003F9E02007C
:109E1000889E0200909E0200989E0200A09E020072
:109E2000A89E0200B09E020020253032780020203B
:109E300020007C002563001B5B306D002573001B38
:109E40005B313B33316D0025734C6F677320647257
:109E50006F70706564202825642925730D0A003C05
:109E600025733E2025733A2000000000000000000A
:109E7000D19E0200B89E0200C09E0200C59E020054
:109E80001B5B313B33306D001B5B313B33326D006C
:109E90001B5B313B33336D001B5B313B33346D0057
:109EA0001B5B313B33356D001B5B313B33366D0043
:109EB0001B5B313B33376D007761726E696E6700F3
:109EC000696E666F00646562756700466174616CF7
:109ED000206572726F720053797374656D207265BC
:109EE0007365740030313233343536373839414296
:109EF0004344454650525300554152540055415237
:109F000054450000000000000000000000000000B8
:109F10000338FDD870474650552046465420657892
:109F2000616D706C6520737461727465642E005489
:109F300068697320697320465055207573616765A1
:109F4000206578616D706C6520776974682046467D
:109F5000542063616C63756C6174696F6E20616E0F
:109F6000642064726177696E672E0D0A00796573EB
:109F7000006E6F00496E7075743A2073696E6520CB
:109F80002575487A2C206E6F6973653A2025732EEB
:109F90000D0A0000449D02004C9D020008000000D4
:109FA0006E72665F73646800449D0200449D020007
:109FB000080000006E72665F7364685F736F630011
:109FC0002020202020202020206828282828202029
:109FD0002020202020202020202020202020202081
:109FE0004810101010101010101010101010101039
:109FF00084848484848484848484101010101010D9
:10A000001081818181818101010101010101010131
:10A0100001010101010101010101011010101010E5
:10A020001082828282828202020202020202020202
:10A0300002020202020202020202021010101020AA
:10A040000007032004170201085710408000000099
:10A05000F4A10200B8A00200CCA1020053756E006A
:10A060004D6F6E0054756500576564005468750047
:10A070004672690053617400000000004A616E007E
:10A08000466562004D617200417072004D61790059
:10A090004A756E004A756C00417567005365700023
:10A0A0004F6374004E6F760044656300000000004B
:10A0B000414D00504D000000F0A10200ECA1020053
:10A0C000ECA10200ECA10200ECA10200ECA1020054
:10A0D000ECA10200ECA10200ECA10200ECA1020044
:10A0E000FFFFFFFFFFFFFFFFFFFFFFFFFFFF00007E
:10A0F0002CA102005CA0020068A102007CA002006A
:10A10000B0A0020010A10200C0A102001CA1020028
:10A11000256D2F25642F257900000000256120255D
:10A1200062202565202554202559000053756E6452
:10A130006179004D6F6E6461790054756573646177
:10A1400079005765646E657364617900546875724F
:10A150007364617900467269646179005361747552
:10A1600072646179000000004A616E756172790065
:10A170004665627275617279004D61726368004173
:10A180007072696C004D6179004A756E65004A75A0
:10A190006C79004175677573740053657074656DF3
:10A1A000626572004F63746F626572004E6F766510
:10A1B0006D62657200446563656D626572000000E2
:10A1C00025483A254D3A255300000000358B020002
:10A1D000518B02005D8B0200698B0200858B0200AF
:10A1E000918B02009D8B0200AB8B020000000000EF
:10A1F0002E00000043000000504F5349580000005B
:10A200004000000080A2020010A2020038000000FE
:10A2100008004000100080001800C000200000016D
:10A2200028004001300080013800C0015000880043
:10A230005800C800600008016800480170008801EB
:10A240007800C8019800D000A0001001A8005001BB
:10A25000B0009001B800D001E0001801E8005801FA
:10A26000F0009801F800D801280160013001A00138
:10A270003801E0017001A8017801E801B801F0019E
:10A280000000803F000000006DC47E3F36BDC83D29
:10A29000BE147B3FC2C5473E0BFA743F31A0943ECB
:10A2A0005E836C3F15EFC33E98C5613FEA5AF13EAD
:10A2B00031DB543FDA390E3F03E4453F9967223FD3
:10A2C000F304353FF304353F9967223F03E4453FEC
:10A2D000DA390E3F31DB543FEA5AF13E98C5613F0F
:10A2E00015EFC33E5E836C3F31A0943E0BFA743F82
:10A2F000C2C5473EBE147B3F36BDC83D6DC47E3FE0
:10A30000000000000000803F36BDC8BD6DC47E3F28
:10A31000C2C547BEBE147B3F31A094BE0BFA743F4A
:10A3200015EFC3BE5E836C3FEA5AF1BE98C5613F2C
:10A33000DA390EBF31DB543F996722BF03E4453F52
:10A34000F30435BFF304353F03E445BF9967223F6B
:10A3500031DB54BFDA390E3F98C561BFEA5AF13E8E
:10A360005E836CBF15EFC33E0BFA74BF31A0943E01
:10A37000BE147BBFC2C5473E6DC47EBF36BDC83D5F
:10A38000000080BF000000006DC47EBF36BDC8BDA8
:10A39000BE147BBFC2C547BE0BFA74BF31A094BECA
:10A3A0005E836CBF15EFC3BE98C561BFEA5AF1BEAC
:10A3B00031DB54BFDA390EBF03E445BF996722BFD2
:10A3C000F30435BFF30435BF996722BF03E445BFEB
:10A3D000DA390EBF31DB54BFEA5AF1BE98C561BF0E
:10A3E00015EFC3BE5E836CBF31A094BE0BFA74BF81
:10A3F000C2C547BEBE147BBF36BDC8BD6DC47EBFDF
:10A4000000000080000080BF36BDC83D6DC47EBF27
:10A41000C2C5473EBE147BBF31A0943E0BFA74BF49
:10A4200015EFC33E5E836CBFEA5AF13E98C561BF2B
:10A43000DA390E3F31DB54BF9967223F03E445BF51
:10A44000F304353FF30435BF03E4453F996722BF6A
:10A4500031DB543FDA390EBF98C5613FEA5AF1BE8D
:10A460005E836C3F15EFC3BE0BFA743F31A094BE00
:10A47000BE147B3FC2C547BE6DC47E3F36BDC8BD5E
:10A48000000000000020004000000000002000400C
:10A490000000000000000000FF0000000090D0035A
:10A4A00050A0020050A0020050A0020050A00200E4
:08A4B00050A0020001000000B1
:040000032000637501
:00000001FF
